:020000040800F2
:100000000000022075210008CD200008CF20000844
:10001000D1200008D3200008D520000800000000EF
:10002000000000000000000000000000B1590008BE
:10003000D720000800000000415A0008D92000081D
:10004000C5210008C5210008C5210008C5210008F8
:10005000C5210008C5210008C5210008C5210008E8
:10006000C5210008C5210008C5210008C5210008D8
:10007000C5210008C5210008C5210008C5210008C8
:10008000C5210008C5210008F1200008C52100088D
:10009000C5210008C5210008C5210008C5210008A8
:1000A000C5210008C5210008C5210008FD20000861
:1000B000C5210008C521000809210008C521000844
:1000C000C5210008C5210008C5210008C521000878
:1000D000C5210008C5210008C52100081521000818
:1000E000C5210008C5210008C5210008C521000858
:1000F000C5210008C5210008C5210008C521000848
:10010000C5210008C5210008C5210008C521000837
:10011000C5210008C5210008C5210008C521000827
:10012000C5210008C5210008C5210008C521000817
:10013000C5210008C5210008C5210008C521000807
:10014000C5210008C5210008C5210008C5210008F7
:10015000C5210008C5210008C5210008C5210008E7
:10016000C5210008C5210008C5210008C5210008D7
:10017000C5210008C5210008C521000800000000B5
:08018000C5210008C52100089B
:1001900010B5054C237833B9044B13B10448AFF3C1
:1001A00000800123237010BD8000002000000000AB
:1001B000F469000808B5034B1BB103490348AFF3CA
:1001C000008008BD0000000084000020F4690008E1
:1001D00001F0FF01102A2BDB10F0070F08D010F8F8
:1001E000013B013A8B422DD010F0070F42B3F6D1FC
:1001F000F0B441EA012141EA014122F007047FF015
:1002000000070023F0E80256083C85EA010586EA6B
:10021000010685FA47F5A3FA87F586FA47F6A5FAA7
:1002200087F68EB9EED1F0BC01F0FF0102F00702B3
:1002300032B110F8013B013A83EA010313B1F8D15E
:100240000020704701387047002D06BF354603383F
:10025000073815F0010F07D1013015F4807F02BF78
:10026000013015F4C03F0130F0BC0138704700BFC9
:1002700081F0004102E000BF83F0004330B54FEA57
:1002800041044FEA430594EA050F08BF90EA020FC4
:100290001FBF54EA000C55EA020C7FEA645C7FEA57
:1002A000655C00F0E2804FEA5454D4EB5555B8BF7A
:1002B0006D420CDD2C4480EA020281EA030382EAEB
:1002C000000083EA010180EA020281EA0303362D7D
:1002D00088BF30BD11F0004F4FEA01314FF4801C50
:1002E0004CEA113102D0404261EB410113F0004F62
:1002F0004FEA03334CEA133302D0524263EB430319
:1003000094EA050F00F0A780A4F10104D5F1200EB6
:100310000DDB02FA0EFC22FA05F2801841F1000111
:1003200003FA0EF2801843FA05F359410EE0A5F1E5
:1003300020050EF1200E012A03FA0EFC28BF4CF016
:10034000020C43FA05F3C01851EBE37101F00045CC
:1003500007D54FF0000EDCF1000C7EEB00006EEBD9
:100360000101B1F5801F1BD3B1F5001F0CD3490863
:100370005FEA30004FEA3C0C04F101044FEA4452BA
:1003800012F5800F80F09A80BCF1004F08BF5FEA41
:10039000500C50F1000041EB045141EA050130BD21
:1003A0005FEA4C0C404141EB0101013C28BFB1F533
:1003B000801FE9D291F0000F04BF01460020B1FA7E
:1003C00081F308BF2033A3F10B03B3F120020CDA51
:1003D0000C3208DD02F1140CC2F10C0201FA0CF02F
:1003E00021FA02F10CE002F11402D8BFC2F1200C94
:1003F00001FA02F120FA0CFCDCBF41EA0C0190404A
:10040000E41AA2BF01EB0451294330BD6FEA040492
:100410001F3C1CDA0C340EDC04F11404C4F120027D
:1004200020FA04F001FA02F340EA030021FA04F38F
:1004300045EA030130BDC4F10C04C4F1200220FAE6
:1004400002F001FA04F340EA0300294630BD21FA24
:1004500004F0294630BD94F0000F83F4801306BFEA
:1004600081F480110134013D4EE77FEA645C18BFDE
:100470007FEA655C29D094EA050F08BF90EA020F75
:1004800005D054EA000C04BF1946104630BD91EA6D
:10049000030F1EBF0021002030BD5FEA545C05D170
:1004A0004000494128BF41F0004130BD14F58004AF
:1004B0003CBF01F5801130BD01F0004545F0FE4123
:1004C00041F470014FF0000030BD7FEA645C1ABF58
:1004D000194610467FEA655C1CBF0B46024650EA8F
:1004E000013406BF52EA033591EA030F41F40021BB
:1004F00030BD00BF90F0000F04BF0021704730B541
:100500004FF4806404F132044FF000054FF0000115
:1005100050E700BF90F0000F04BF0021704730B5D6
:100520004FF4806404F1320410F0004548BF4042AB
:100530004FF000013EE700BF42004FEAE2014FEA00
:1005400031014FEA02701FBF12F07F4393F07F4FDB
:1005500081F06051704732F07F4208BF704793F0DE
:100560007F4F04BF41F40021704730B54FF46074F1
:1005700001F0004521F000411CE700BF50EA0102F4
:1005800008BF704730B54FF000050AE050EA01029D
:1005900008BF704730B511F0004502D5404261EB0D
:1005A00041014FF4806404F132045FEA915C3FF44E
:1005B000D8AE4FF003025FEADC0C18BF03325FEAEB
:1005C000DC0C18BF033202EBDC02C2F1200300FA9C
:1005D00003FC20FA02F001FA03FE40EA0E0021FAC1
:1005E00002F11444BDE600BF70B54FF0FF0C4CF4AF
:1005F000E06C1CEA11541DBF1CEA135594EA0C0F61
:1006000095EA0C0F00F0DEF82C4481EA030621EA9B
:100610004C5123EA4C5350EA013518BF52EA0335D6
:1006200041F4801143F4801338D0A0FB02CE4FF088
:100630000005E1FB02E506F00042E0FB03E54FF0B8
:100640000006E1FB03569CF0000F18BF4EF0010EB0
:10065000A4F1FF04B6F5007F64F5407404D25FEAAC
:100660004E0E6D4146EB060642EAC62141EA55515F
:100670004FEAC52040EA5E504FEACE2EB4F1FD0CA1
:1006800088BFBCF5E06F1ED8BEF1004F08BF5FEA1F
:10069000500E50F1000041EB045170BD06F00046D1
:1006A00046EA010140EA020081EA0301B4EB5C047E
:1006B000C2BFD4EB0C0541EA045170BD41F4801176
:1006C0004FF0000E013C00F3AB8014F1360FDEBF9B
:1006D000002001F0004170BDC4F10004203C35DA77
:1006E0000C341BDC04F11404C4F1200500FA05F3FA
:1006F00020FA04F001FA05F240EA020001F000429B
:1007000021F0004110EBD37021FA04F642EB060110
:100710005EEA430E08BF20EAD37070BDC4F10C043A
:10072000C4F1200500FA04F320FA05F001FA04F2FE
:1007300040EA020001F0004110EBD37041F10001EA
:100740005EEA430E08BF20EAD37070BDC4F12005F5
:1007500000FA05F24EEA020E20FA04F301FA05F25D
:1007600043EA020321FA04F001F0004121FA04F205
:1007700020EA020000EBD3705EEA430E08BF20EAD5
:10078000D37070BD94F0000F0FD101F0004640000F
:1007900041EB010111F4801F08BF013CF7D041EA91
:1007A000060195F0000F18BF704703F00046520095
:1007B00043EB030313F4801F08BF013DF7D043EA66
:1007C0000603704794EA0C0F0CEA135518BF95EA1C
:1007D0000C0F0CD050EA410618BF52EA4306D1D1A3
:1007E00081EA030101F000414FF0000070BD50EAC2
:1007F000410606BF1046194652EA430619D094EA4C
:100800000C0F02D150EA013613D195EA0C0F05D135
:1008100052EA03361CBF104619460AD181EA030189
:1008200001F0004141F0FE4141F470014FF0000041
:1008300070BD41F0FE4141F4780170BD70B54FF0DC
:10084000FF0C4CF4E06C1CEA11541DBF1CEA13555C
:1008500094EA0C0F95EA0C0F00F0A7F8A4EB05043E
:1008600081EA030E52EA03354FEA013100F0888035
:100870004FEA03334FF0805545EA131343EA1263FE
:100880004FEA022245EA111545EA10654FEA0026B3
:100890000EF000419D4208BF964244F1FD0404F56C
:1008A000407402D25B084FEA3202B61A65EB0305C8
:1008B0005B084FEA32024FF480104FF4002CB6EB85
:1008C000020E75EB030E22BFB61A754640EA0C0005
:1008D0005B084FEA3202B6EB020E75EB030E22BF45
:1008E000B61A754640EA5C005B084FEA3202B6EB86
:1008F000020E75EB030E22BFB61A754640EA9C0045
:100900005B084FEA3202B6EB020E75EB030E22BF14
:10091000B61A754640EADC0055EA060E18D04FEAD2
:10092000051545EA16754FEA06164FEAC30343EA72
:1009300052734FEAC2025FEA1C1CC0D111F4801F3F
:100940000BD141EA00014FF000004FF0004CB6E738
:1009500011F4801F04BF01430020B4F1FD0C88BFD7
:10096000BCF5E06F3FF6AFAEB5EB030C04BFB6EBE2
:10097000020C5FEA500C50F1000041EB045170BDD5
:100980000EF0004E4EEA113114EB5C04C2BFD4EB02
:100990000C0541EA045170BD41F480114FF0000E86
:1009A000013C90E645EA060E8DE60CEA135594EA02
:1009B0000C0F08BF95EA0C0F3FF43BAF94EA0C0F05
:1009C0000AD150EA01347FF434AF95EA0C0F7FF47A
:1009D00025AF104619462CE795EA0C0F06D152EACE
:1009E00003353FF4FDAE1046194622E750EA4106B2
:1009F00018BF52EA43067FF4C5AE50EA41047FF4C3
:100A00000DAF52EA43057FF4EBAE12E74FEA410225
:100A100012F5001215D211D56FF47873B3EB625250
:100A200012D94FEAC12343F0004343EA505311F077
:100A3000004F23FA02F018BF404270474FF0000009
:100A4000704750EA013005D111F0004008BF6FF047
:100A5000004070474FF00000704700BF4A0011D2BD
:100A600012F5001211D20DD56FF47873B3EB625208
:100A70000ED44FEAC12343F0004343EA505323FA14
:100A800002F070474FF00000704750EA013002D189
:100A90004FF0FF3070474FF00000704753B94AB92C
:100AA000002908BF00281CBF4FF0FF314FF0FF3076
:100AB00000F06EB9ADF1080C6DE904CE00F006F857
:100AC000DDF804E0DDE9022304B070472DE9F047CA
:100AD000089D04468C46002B40F083808A421746CE
:100AE00047D9B2FA82F242B1C2F1200024FA00F0F2
:100AF0009140974040EA010C94404FEA1748230C7C
:100B0000BCFBF8F61FFA87FE08FB16C143EA014357
:100B100006FB0EF1994209D9FB1806F1FF3080F06F
:100B20001981994240F21681023E3B445B1AA4B2FD
:100B3000B3FBF8F008FB103344EA034400FB0EFE5D
:100B4000A64509D93C1900F1FF3380F00581A6457F
:100B500040F2028102383C4440EA0640A4EB0E0415
:100B600000261DB1D4400023C5E900433146BDE84D
:100B7000F08702B9FFDEB2FA82F2002A50D1CB1B15
:100B80004FEA174E1FFA87F80126B3FBFEFC210C33
:100B90000EFB1C3341EA034108FB0CF38B4207D9DF
:100BA00079180CF1FF3002D28B4200F2E9808446C2
:100BB000C91AA3B2B1FBFEF00EFB101143EA0144C7
:100BC00008FB00F8A04507D93C1900F1FF3302D219
:100BD000A04500F2D9801846A4EB080440EA0C4076
:100BE000BFE78B4209D9002D00F0B1800026C5E98E
:100BF000000130463146BDE8F087B3FA83F6002E97
:100C00004AD18B4202D3824200F2B880841A61EB4F
:100C1000030101208C46002DA8D0C5E9004CA5E7B2
:100C2000C2F1200320FA03F6974001FA02F04FEADE
:100C3000174ED9403043030CB1FBFEF61FFA87F87C
:100C40000EFB161143EA014306FB08F1994204FA30
:100C500002F409D9FB1806F1FF3C80F08D8099421F
:100C600040F28A80023E3B445B1A81B2B3FBFEF045
:100C70000EFB103341EA034100FB08F38B4207D916
:100C8000791800F1FF3C73D28B4271D90238394494
:100C9000CB1A40EA064678E7C6F1200C03FA06F4C0
:100CA00022FA0CF31C4320FA0CF701FA06F34FEA80
:100CB000144E21FA0CF11F433B0CB1FBFEF91FFA55
:100CC00084F80EFB191143EA014109FB08FA8A4531
:100CD00002FA06F200FA06F308D9611809F1FF30AA
:100CE00048D28A4546D9A9F102092144A1EB0A015B
:100CF000BFB2B1FBFEF00EFB101147EA014700FB4B
:100D000008F8B84507D9E71900F1FF312ED2B845E8
:100D10002CD90238274440EA0940A7EB0807A0FB7A
:100D200002894F45C64649461AD317D05DB1B3EB89
:100D30000E0267EB010707FA0CFCF2404CEA0202D4
:100D4000F740C5E9002700263146BDE8F0872E466A
:100D500028460BE70646E9E61846FDE64345E5D298
:100D6000B8EB020E69EB04010138DFE70846D2E771
:100D700060468DE78146B9E7664675E730464AE743
:100D8000ACF1020C394413E702383C4424E700BFBD
:100D9000704700BF38B5054D054C04222946204652
:100DA00003F01FFBC82003F0AAFBF6E7284D002044
:100DB000704A0020000000002DE9F74F3A4F3B4CED
:100DC000DFF8FCB03C21384602F03EFA3C212046D8
:100DD00002F03AFA3B685D6A23685B6A01F03EFA0A
:100DE000A246064601F03AFA801B6428FAD93A680E
:100DF000DAF80030546A596A1168C90645D5A54227
:100E00003EDD2C1B1968556A5B6A01F027FA4EF625
:100E10005F239C42064626DC254B1B6823F0040317
:100E2000622B20D10A206043FFF774FB1CA3D3E997
:100E30000023FFF703FD1F4B0022FFF7FFFC804656
:100E40008946DBF80000FFF755FB4B464246FFF7AB
:100E500015FAFFF703FE4946CBF800004046FFF7BE
:100E6000D5FD154B18602246DBF80030134901A868
:100E700005F0A0F90A2101AA084605F0B3F8B1E788
:100E8000C4F57F44FF342C44BCE7A54201DA641B5F
:100E9000B8E7C5F57F45FF35F5E700BFAFF3008044
:100EA0007B14AE47E17AF43F2C4D0020B84A002075
:100EB000DC49002000001840B4000020166A000839
:100EC000A0000020000000002DE9F04F3048DFF8BE
:100ED000CCB087B002F080F92D48002102F08AFEE4
:100EE0000FF29409D9E9008925A7D7E90067584688
:100EF00001F074FA4FF47A71584601F00EFB58462F
:100F000001F05EFB8246584601F0ECFA1FFA8AF0C7
:100F1000FFF7F0FA02460B46FFF766FB42464B46E8
:100F2000FFF762FB1FFA8AFA044650460D46FFF7A8
:100F3000F1FA32463B46FFF757FB02460B46204686
:100F40002946FFF799F910A3D3E90023FFF796F993
:100F5000FFF784FD0F4B104918600246534601A865
:100F600005F028F901AA1E210A2005F03BF804F03B
:100F70009DFFBCE7AFF30080B9473A34816A003F78
:100F800018CFA0A17F82CD3FDD24068195DF7E4072
:100F9000284A0020004B00201E6A0008044B002055
:100FA00000B595B02C22002109A805F0FBF8142209
:100FB000002103A805F0F6F80023194A0193116CEB
:100FC00041F080511164126C02F080520192019A3A
:100FD000144A0293116841F48041116012680E9323
:100FE00002F480420292029A022208920120102208
:100FF000CDE90B0208A801F0CBFD014608B172B69D
:10100000FEE70F23CDE90330CDE90500079003A8E3
:1010100001F098FF08B172B6FEE715B05DF804FB69
:10102000003802400070004080B59CB001F0F0F83C
:10103000FFF7B6FF1422002113A805F0B3F800242F
:10104000A84B01941A6BA848A84D42F010021A63ED
:101050001A6B02F010020192019A02941A6B42F08C
:1010600004021A631A6B02F004020292029A0394B9
:101070001A6B42F001021A631A6B02F0010203922A
:10108000039A04941A6B42F008021A631A6B02F076
:1010900008020492049A05941A6B42F002021A6341
:1010A0001B6B03F002030593224642F2E051059BBD
:1010B00001F04CFD8E4822463C2101F047FD2246BE
:1010C0008C48402101F042FD012642F2E05386485F
:1010D00013A9CDE91336CDE9154401F05DFC3C239D
:1010E000834813A9CDE91336CDE9154401F054FC2A
:1010F00030238048159413A9CDE9133401F04CFC3A
:1011000040237C4813A9CDE91336CDE9154401F0FD
:1011100043FC1022214608A805F044F81C22214671
:101120000CA8CDE9064405F03DF82022214613A87D
:1011300005F038F8704BAC60C5E90034284641F63C
:101140001F43C5E90334C5E9054402F0FBF908B1C2
:1011500072B6FEE74FF4805308A92846089302F0C0
:1011600036FC08B172B6FEE7284602F017FA08B15D
:1011700072B6FEE7CDE9060006A9284602F0BEFDDC
:10118000024608B172B6FEE76023CDE90C30CDE926
:101190000E00CDE9100012900CA9284602F0E2FAE8
:1011A00008B172B6FEE704220CA9284602F0DAFA6A
:1011B00008B172B6FEE7CDE91300CDE9150017902E
:1011C0004FF400531A9013A92846189302F0D4FD47
:1011D00008B172B6FEE7494C4FF08043C4E90030D5
:1011E0004FF6FF73C4E903300323CDE913300A231C
:1011F000CDE90C00CDE91560CDE91730CDE91960D6
:10120000A060A06113A920461B9302F01FFA08B149
:1012100072B6FEE7CDE90C000CA9204602F06EFD87
:10122000044608B172B6FEE70146102208A804F091
:10123000B9FF1C2221460CA8CDE9064404F0B2FFF8
:101240002146202213A804F0ADFF2D482D498460CB
:101250004FF4A073C0E900134FF4FA63C0E90334FC
:1012600080234461836102F06DF908B172B6FEE734
:101270004FF480552248089508A902F0A8FB08B150
:1012800072B6FEE71E4802F089F908B172B6FEE7B1
:10129000CDE9060006A91A4802F030FD08B172B681
:1012A000FEE76023CDE90C30CDE910000E901290DE
:1012B0000C2213480CA902F055FA08B172B6FEE7E9
:1012C000CDE91300CDE9150017904FF400531A90A3
:1012D00013A90B48189302F04FFD0446A0B172B653
:1012E000FEE700BF0038024000100240E049002045
:1012F00000000240000C0240000401402C4D002080
:10130000E04C002000000140644800F071FE644899
:10131000644A04614FF4E133C0E900230C23C0E9BF
:101320000244C0E90534C46102F010FE08B172B68F
:10133000FEE75D4C5D4BA060C4E900300323CDE9BE
:10134000133001220A234FF6FF77CDE90C00C4E9E0
:101350000370CDE91520CDE91730CDE91920A06142
:1013600013A920461B9302F071F908B172B6FEE78B
:10137000CDE90C000CA9204602F0C0FC044608B1DF
:1013800072B6FEE74FF01008014642460CA804F082
:1013900009FF474E4246214613A8CDE9084404F010
:1013A00001FF444B34613046C6E90038C6E90247C4
:1013B000B46102F0C7F808B172B6FEE70CA9304676
:1013C0000C9502F004FB08B172B6FEE7384802F053
:1013D00011F908B172B6FEE7CDE9080008A9344852
:1013E00002F08CFC024608B172B6FEE70126CDE998
:1013F00014601390169013A92D4802F04BFA05467D
:1014000008B172B6FEE70146102213A804F0CAFE26
:10141000294C2A4BA560C4E900352046284B26619B
:10142000267684F82050E562A362E560E66184F8E0
:101430003050666100F02CFF08B172B6FEE70A2357
:10144000159013A92046CDE9133601F053F904464F
:1014500008B172B6FEE704F0E5FD02F0DBFF194AC1
:101460001948214603F002F8184B194A1860214622
:10147000184802F0FBFF184B184A1860214618481C
:1014800002F0F4FF174B184A18602146174802F083
:10149000EDFF174B186002F0CFFFFEE7E04C002095
:1014A000704A002000480040B84A00200004004074
:1014B000284A002000080040044B00200020014082
:1014C0000100000F986A0008950D0008D849002017
:1014D000746A0008C1170008B44A0020506A000866
:1014E000B90D0008744D0020BC6A0008C90E000840
:1014F000D449002000000000F8B5077F012F044602
:1015000011D1274E3178354671B901F0F8FE254BDF
:101510003770186023681A6A22F00A021A621A6A7F
:1015200042F002021A62F8BD0129FCD1002101F04B
:10153000E6FE1D4B2468186000236362194B1B4AAA
:101540001B68984220D9C31A13601068FEF7D2FFB7
:1015500011A3D3E90023FFF747F8154B0022FFF74B
:1015600043F8FFF77BFA134B187000232B70236AA4
:1015700023F00A032362236A23620F4B1A68D3689D
:1015800023F00203D360CEE7DFD2C3F57F43FF33FE
:101590000344D9E7AFF300809CC420B07268A13F38
:1015A000B0000020A8000020AC0000209C0000201B
:1015B0000000E03FA4000020284A0020034B1B68E5
:1015C00000225A625A6A8242FCD37047284A00209D
:1015D00010B50B4C01224FF40051204601F0B6FA31
:1015E0000A20FFF7EBFF00224FF40051204601F0E4
:1015F000ADFA044B1A68D36843F00203D36010BD00
:1016000000100240284A00202DE9F041674E684C46
:10161000684D4FF47A7002F072FF0021304602F0FC
:10162000E7FA0421304602F0E3FA204601220421C1
:1016300001F08CFA20460022082101F087FA2046AA
:101640000122202101F082FA10212046002201F01F
:101650007DFA594A336812685A63584A12689A6385
:101660004FF4967002F04BFF2B6839221A64204623
:101670000022042101F06AFA20460122082101F02B
:1016800065FA20460022202101F060FA0122102193
:10169000204601F05BFA4FF4FA6002F030FF2B684D
:1016A00048271F644FF4FA6002F029FF2B684FF0BF
:1016B0003708C3F8408020460122042101F046FA91
:1016C00020460022082101F041FA20460122202173
:1016D00001F03CFA00221021204601F037FA40F2D6
:1016E000A46002F00CFF20460022042101F02EFA33
:1016F00020460122082101F029FA2046002220215B
:1017000001F024FA10212046012201F01FFA2B6873
:1017100064221A644FF47A7002F0F1FE2B684FF4E1
:10172000C8601F6402F0EBFE2B682046C3F84080BF
:101730000122042101F00AFA20460022082101F0CA
:1017400005FA20460122202101F000FA0022102192
:10175000204601F0FBF94FF45C6002F0D0FE2B68EC
:1017600020461F640022042101F0F0F920460122E6
:10177000082101F0EBF920460022202101F0E6F9D2
:1017800001222046102101F0E1F92B684FF49670F8
:101790001F6402F0B4FE336800225A63BDE8F041D2
:1017A0009A634FF47A7002F0AABE00BFE0490020AD
:1017B00000000240E04C002004000020080000204F
:1017C0002DE9F04F7D4DDFF804A299B00C21284699
:1017D00002F00EFA00217A4802F00AFA0421784851
:1017E00002F006FA2B6849221A64FFF7F1FE4FF463
:1017F0007A7002F084FE73480022042101F0A6F9F9
:1018000070480122082101F0A1F96E480022202130
:1018100001F09CF96B480122102101F097F96A4A06
:101820001068516801AB03C30024ADF80C40674B4E
:101830001A5D674B1A60623A0023112A00F259823E
:10184000DFE812F06C0057025702570212005702ED
:101850005702570257025702D80057021102570287
:101860005702570277014E02002301260AEB0400BB
:101870000A21825D013601FB0323042EA3F130030C
:10188000F7D1544A544F136064225A4353493A6083
:1018900004A8662204F08EFC1421084604AA04F071
:1018A000A1FB48480022314601F050F94548012289
:1018B000082101F04BF943480022202101F046F9AC
:1018C00001224048102101F041F93A683AB13C4BFD
:1018D00043491B68096859634249096899632B6841
:1018E000414F4921196441493B6809680B449A42B8
:1018F00010D8334B1B6800265E6332209E6302F0D3
:10190000FEFD3E603A484FF6FF73072201A90434FA
:1019100002F04AFB642002F0F2FD88E70023012672
:101920000AEB04000A21825D013601FB0323042E29
:10193000A3F13003F7D1274A274F136064225A439B
:1019400026493A6004A8622204F034FC14210846B7
:1019500004AA04F047FB1B48DFF88C8001223146C3
:1019600001F0F4F817480022082101F0EFF81548BB
:101970000122202101F0EAF800221021114801F093
:10198000E5F80F4B164A1B6812685A63154A12682D
:101990009A632A68492111641449D8F8002009681B
:1019A0000A4439688A42B5D300265E6332209E63BA
:1019B00002F0A5FDC8F80060A4E700BFE04C0020DD
:1019C000E0490020000002400C6A0008504B002053
:1019D000DC4900204C4B002000000020246A000855
:1019E0000400002008000020A0000020B400002017
:1019F000704A0020002301260A200AEB04018A5DB8
:101A000043430136303B042E1344F8D1BB4FBC494D
:101A10003B606C2204A804F0CDFB142104AA084604
:101A200004F0E0FAD7F80080B8F1000F68D1DFF8D1
:101A3000E4922B6871221A64D9F800304FF4AF6B2E
:101A40004FF44872C3F834B0DC209A6302F057FDBB
:101A50002B6836211964D9F800304FF448725A6364
:101A600040F65430C3F838B002F049FD3146A5487D
:101A7000012201F06BF8A3484246082101F066F804
:101A8000A0480122202101F061F810219D48424622
:101A900001F05CF82B6871221A64D9F800304FF419
:101AA0001672C3F834B040F2E7409A6302F027FDA3
:101AB00031469448424601F049F8924801220821F3
:101AC00001F044F88F484246202101F03FF80122FE
:101AD00010218C4801F03AF82B6849261E64C82072
:101AE00002F00DFD884AD9F8003012685A63874A1F
:101AF00012689A634FF4CD7002F001FD2B681E64EA
:101B00003B68012B03D14FF4E15002F0F8FC3B6835
:101B1000022B03D142F6302002F0F1FC3B68032B8C
:101B200003D143F2B06002F0EAFC2B6849221A6448
:101B3000E8E6002301260A200AEB04018A5D4343FC
:101B40000136303B042E1344F8D16C4F6C493B6096
:101B5000722204A804F02EFB142104AA084604F003
:101B600041FAD7F80080B8F1000F67D1DFF8A491EF
:101B7000654BD9F80020DFF894B119685163DBF8A0
:101B8000001091634FF4E67002F0B9FC2A687121ED
:101B90001164D9F8002040F2DC5151634FF4167102
:101BA000916340F6C41002F0AAFC56480122314667
:101BB00000F0CCFF53484246082100F0C7FF5148CF
:101BC0000122202100F0C2FF4E484246102100F0C1
:101BD000BDFF2A6836211164D9F800204FF4FA714C
:101BE00051634FF4FA61916340F2064002F087FCC2
:101BF0002A68444849231364434BD9F800201B68E2
:101C00005363DBF8003093633146424600F09EFF99
:101C10003C480122082100F099FF3A484246202121
:101C200000F094FF01223748102100F08FFF40F2AE
:101C30006F2002F064FC2B6849221A643B68012B78
:101C400003D141F69C0002F05AFC3B68022B03D101
:101C500042F21C5002F053FC3B68032B7FF465AF4B
:101C600042F6DA705FE70AF80430012200230A2600
:101C70000AEB0400815C73430132303B042A0B44BD
:101C8000F8D11E4E1E493360214B6E221B6804A8FA
:101C900004F090FA142104AA084604F0A3F933686A
:101CA0000BB9FFF7B1FC3368012B03D1FFF7ACFC94
:101CB000FFF7AAFC3368022B05D1FFF7A5FCFFF75D
:101CC000A3FCFFF7A1FC3368032B7FF41BAEFFF7E7
:101CD0009BFCFFF799FCFFF797FCFFF795FC11E6DB
:101CE0000C4A12684FF4FA605363936302F007FCE6
:101CF00008E6084A1268536393630BE64C4B0020D6
:101D0000246A0008000002400400002008000020AF
:101D100000000020E049002070B50B490B480A4D37
:101D20004FF6FF730A2202F03FF90948094A036897
:101D300004219C1815F8016B04F8016B0139F9D1E5
:101D400004330360D15470BD284D0020704A002038
:101D5000B8000020504B002082B00E4B00220092B1
:101D6000596C41F480415964596C01F480410091EF
:101D700000990192196C41F0805119641B6C03F0B9
:101D800080530193019B0F216FF0010002B000F01E
:101D900057BD00BF0038024010B5044688B0142279
:101DA000002103A804F0FEF92268164B9A4227D1BD
:101DB00003F58C33002401945A6C134842F480726A
:101DC0005A645A6C02F480720192019A02941A6B5E
:101DD00042F004021A631B6B059403F004030293A0
:101DE0000122029B03A90323CDE9032300F0D4FDC4
:101DF00012202246052100F023FD122000F052FDA2
:101E000008B010BD002001400008024010B51422A7
:101E10008AB0044600210DEB020004F0C3F92368E8
:101E2000344A934214D1344B00220092596C41F051
:101E3000010159645B6C03F0010300931B20052131
:101E4000009B00F0FDFC1B2000F02CFD0AB010BD33
:101E50002A4A934228D1284B002401941A6C42F05C
:101E600004021A641A6C02F004020192019A0294AC
:101E70001A6B42F008021A631B6B03F0080302930B
:101E8000029B4FF480500223CDE9050305A91C48AD
:101E90000993CDE9074400F07FFD1E20224605216D
:101EA00000F0CEFC1E20CFE7164A9342CED1124B53
:101EB000154800220392596C41F002015964596C93
:101EC00001F00201039103990492196B41F004019E
:101ED00019631B6B03F004030493049BC0210223CA
:101EE000CDE90513032305A9CDE90722099300F0E5
:101EF00053FDABE7000001400038024000080040FD
:101F0000000C0240000401400008024070B5142299
:101F10008AB0044600210DEB020004F043F9236867
:101F2000B3F1804F39D103F50E33002400941A6CBD
:101F30002B4842F001021A641A6C02F0010200926E
:101F4000009A01941A6B42F001021A631A6B02F0B4
:101F500001020192019A02941A6B42F002021A6382
:101F60001B6B03F0020302930225029B01264FF430
:101F7000004305A9CDE90535CDE90745099600F0EF
:101F80000BFD0823CDE90535CDE907451548099630
:101F900005A900F001FD0AB070BD134A9342FAD1C1
:101FA000124B0F4800220392196C41F00201196490
:101FB000196C01F00201039103990492196B41F02D
:101FC000010119631B6B03F001030493C021049BFF
:101FD0000223CDE90513CDE90722099305A9D8E726
:101FE00000000240000402400004004000380240AB
:101FF00010B5044686B01422002101A804F0D2F8DE
:1020000022680F4B9A4218D10E4A0F4800230093C2
:10201000116B41F010011163126B02F0100200927B
:102020004FF48041009A0222CDE90112CDE9033339
:1020300001A90123059300F0AFFC06B010BD00BF5D
:1020400000000140003802400010024010B5044674
:1020500088B01422002103A804F0A4F82268194BC8
:102060009A422CD103F5F833002401941A6C1648D7
:1020700042F480221A641A6C02F480220192019ABE
:1020800002941A6B42F004021A631B6B059403F06E
:10209000040302934FF44062029B0223CDE9032321
:1020A00003210723CDE9061303A900F075FC2720BF
:1020B0002246052100F0C4FB272000F0F3FB08B006
:1020C00010BD00BF0048004000080240FEE7FEE7E8
:1020D000FEE7FEE7FEE7704708B500F0B3F803F04F
:1020E000CFF9012803D0BDE8084003F0DBBC08BDF0
:1020F000014800F06BBA00BF044B0020014801F01A
:1021000018B900BFE04C0020014801F012B900BF2F
:10211000284A0020014802F003B800BF704A00209E
:102120000B4B196810B5024609B90A4919601868BD
:1021300009490A4C0244091B8A4206D903F0FAFFF6
:102140000C2303604FF0FF3010BD1A60FCE700BFA6
:10215000BC000020D051002000000220000400003C
:10216000034AD2F8883043F47003C2F888307047CD
:1021700000ED00E0DFF834D00D480E490E4A002390
:1021800002E0D458C4500433C4188C42F9D30B4A2B
:102190000B4C002301E013600432A242FBD3FFF793
:1021A000DFFF03F0CDFFFEF73FFF70470000022086
:1021B0000000002080000020B4750008800000208E
:1021C000CC510020FEE7000038B50E4A0E4B054604
:1021D00018784FF47A73B3FBF0F31068B0FBF3F0A8
:1021E00000F06EFB044658B90F2D09D80246294667
:1021F0004FF0FF3000F024FB044B20461D6038BD3B
:102200000120FCE70C00002010000020140000203A
:1022100008B50B4B1A6842F400721A601A6842F44F
:1022200080621A601A6842F480721A60032000F01B
:10223000F5FA0F20FFF7C8FFFFF78EFD002008BD5D
:10224000003C0240034A044B11681B780B441360A6
:10225000704700BF784D002010000020014B186827
:10226000704700BF784D002038B50446FFF7F6FFF1
:10227000631C1CBF054B1B78054618BFE418FFF70D
:10228000EDFF431BA342FAD338BD00BF100000206E
:1022900038B50446002800F09B80056C25B9FFF78F
:1022A0007BFD656484F83C50236CDB0600F18E8076
:1022B000236C23F4885323F0020343F002032364C6
:1022C000444B5A6822F440325A605A6861680A43A3
:1022D0005A60236821695A6822F480725A605A68E9
:1022E00042EA01225A605A68A16822F040725A609C
:1022F0005A680A435A609A68E16822F400629A6058
:102300009A680A439A603449A26A8A4252D099680C
:1023100021F07061996099680A439A609A68E16A4D
:1023200022F040529A609A680A439A609A6822F0B2
:1023300002029A609A68217E42EA41029A6094F809
:102340002020002A3ED05A68616A42F400625A6036
:102350005A6822F460425A605A68013942EA4132AE
:102360005A60DA6AE16922F47002DA62DA6A0139E3
:1023700042EA0152DA629A6822F400729A609A681C
:1023800094F8301042EA41229A609A68616922F416
:1023900080629A609A68002042EA81229A606064B2
:1023A000236C23F0030343F001032364002384F828
:1023B0003C3038BD9A6822F070629A609A6822F0C8
:1023C0004052B2E75A6822F40062C9E70120EDE703
:1023D0000120EEE7002301400100000F13B50023A8
:1023E000019390F83C30012B6CD00123026880F8F7
:1023F0003C309368D9070CD5936813F001031AD1C8
:10240000026C42F010020264426C42F0010242642B
:1024100056E093682D4943F0010393602C4B1B68F1
:10242000B3FBF1F303EB43030193019B002BE3D0D8
:10243000019B013BF8E7036C264C23F4E06323F097
:10244000010343F48073036453685B0541BF036C6D
:1024500023F4405343F480530364036C13F4805318
:102460001CBF436C23F0060343646FF0220100237A
:1024700080F83C3011601849486810F01F0019D1ED
:10248000A24206D0154B9A420DD14B6813F01F0F94
:1024900007D1906810F0405016D1936843F0804304
:1024A000936002B010BD0E4B9A42FAD14B6813F004
:1024B000100FEDE7A24207D1906810F04050ECD029
:1024C0001846EEE70220ECE70020EAE740420F0062
:1024D0000C000020002001400023014000210140A9
:1024E0000022014090F83C30012B14D003689A6818
:1024F00022F001029A609B68DB0707D4036C23F487
:10250000885323F0010343F001030364002380F8A0
:102510003C30184670470220704703689A6852059D
:1025200070B504460D460BD59B68DE0508D5036CD7
:1025300043F020030364002380F83C30012070BD89
:10254000FFF78CFE064623681A6891070CD56FF0DA
:1025500012021A60226C42F4007222649A6812F02D
:10256000405F17D00020EAE7681CEDD065B923680A
:102570001B6813F00203E6D1226C84F83C3042F071
:10258000040222640320DAE7FFF768FE801BA842FA
:10259000EDD8D8E7207E0028E4D1DA6A12F4700F73
:1025A00002D09B685A05DDD4236C23F48073236426
:1025B000236CDB04D6D4236C43F001032364BEE711
:1025C0000368D86C704770477047704738B5036828
:1025D00019685A688D0704462BD5900629D5226CB8
:1025E000D1065EBF226C42F4007222649A6812F037
:1025F000405F17D1227EAAB9DA6A12F4700F02D0B6
:102600009A6852050ED45A6822F020025A60236C50
:1026100023F480732364236CDB045EBF236C43F0DC
:10262000010323642046FFF7CEFF23686FF01202F8
:102630001A60236819685A684D0732D5100630D5DC
:10264000226CD1065EBF226C42F4005222649A686A
:1026500012F4401F1ED19A6B12F4401F02D09A68E8
:10266000520517D45A68550514D49A6812F0405F81
:1026700010D1227E72B95A6822F080025A60236C0F
:1026800023F480532364236CD8055EBF236C43F08E
:1026900001032364204600F0BFF823686FF00C02AA
:1026A0001A60236819685A68C9070FD555060DD5F1
:1026B0001B68D8070AD5236C43F480332364204673
:1026C000FFF782FF23686FF001021A602368196820
:1026D0005A6889060DD552010BD5626C6FF0200542
:1026E00042F00202626420461D60FFF76EFF23681D
:1026F0001D6038BDF7B50023019390F83C30012BE5
:1027000066D0012380F83C300D6803688E68092D7F
:10271000ACB231D904EB4402DF681E3A4FF0070C2B
:102720000CFA02FC27EA0C07DF60DF6806FA02F207
:102730003A43DA604968062901EB81022CD8596BCB
:10274000053A1F26964021EA06015963596B04FA9F
:1027500002F20A435A632C4A934207D1122D39D10F
:10276000D2F8043343F48003C2F80433002380F822
:102770003C30184603B0F0BD1F6905EB45024FF031
:10278000070C0CFA02FC27EA0C071F611F6906FA06
:1027900002F23A431A61CDE70C294FF01F010BD822
:1027A0001E6B233A914026EA01011963196B04FA62
:1027B00002F20A431A63CEE7DE6A413A914026EA02
:1027C0000101D962D96A04FA02F20A43DA62C2E765
:1027D0000220CFE7A5F11003012BC7D80B4A53689D
:1027E000102D43F400035360C0D1094B094A1B6804
:1027F000B3FBF2F20A2353430193019B002BB5D0A4
:10280000019B013BF8E700BF00200140002301408D
:102810000C00002040420F00704700000749CA68C2
:1028200022F4E0620302120403F4E063120C134387
:1028300043F0BF6343F40033CB60704700ED00E02A
:10284000164B30B5DC68C4F30224C4F10705231D20
:10285000042D28BF0425062B4FF0FF338CBF033C0B
:10286000002403FA05F521EA0501A34022EA030248
:10287000A140002841EA0203ACBF00F16040084AD1
:102880004FEA0313B8BF00F00F00DBB2AABF00F598
:102890006140135480F8003330BD00BF00ED00E00C
:1028A00014ED00E0002808DB4209012300F01F00BE
:1028B00003FA00F0014B43F82200704700E100E00A
:1028C0000138B0F1807F0AD2064B074A5860F021E8
:1028D00082F823100020072298601A6070470120B8
:1028E000704700BF10E000E000ED00E070B5044666
:1028F000866DFFF7B3FC94F83530022B054606D001
:1029000080236365002384F83430012070BD236880
:102910001A6822F016021A605A6922F080025A617F
:10292000226C0AB9A26C1AB11A6822F008021A6065
:102930001A6822F001021A6023681B6813F0010371
:102940000AD1E16D3F228A40B260012284F835202D
:1029500084F834301846D9E7FFF780FC401B05287F
:10296000EAD9202363650320002384F8350084F826
:102970003430CBE790F83530022B03D08023436509
:10298000012070470268052380F83530136823F072
:1029900001031360002070472DE9F74FDFF8A8917D
:1029A000674A00230D6801249C4004EA050CAC43EF
:1029B00040F0B1804D6805F003044FEA4308032658
:1029C000671E06FA08F6012F6FEA060634D88768F4
:1029D00007EA060ECF6807FA08F747EA0E0787608E
:1029E000476827EA0C0EC5F300179F4047EA0E0719
:1029F0004760C76807EA060E8F6807FA08F747EAD4
:102A00000E07022CC76019D14FEAD30A00EB8A0ADD
:102A100003F0070BDAF820704FEA8B0B4FF00F0E24
:102A20000EFA0BFE27EA0E0E0F6907FA0BF747EABC
:102A30000E07CAF8207001E0032CDAD1076804FA07
:102A400008F43E40264315F4403F066063D04FF043
:102A5000000ACDF804A0D9F844603A4C46F4804608
:102A6000C9F84460D9F8446006F480460196019E96
:102A700023F0030606F1804606F59C3603F0030EAC
:102A8000D6F808804FEA8E0E0F2707FA0EF7A042FD
:102A900028EA070746D004F58064A04244D004F534
:102AA0008064A04242D004F58064A04240D004F586
:102AB0008064A0423ED004F58064A0423CD004F57E
:102AC0008064A0423AD004F58064A0420CBF072481
:102AD000082404FA0EF43C43B46014686FEA0C0650
:102AE000EF0354BF34404CEA040414605468AF034D
:102AF00054BF34404CEA040454609468EF0254BF5D
:102B000034404CEA04049460D468AD0254BF3440AD
:102B10004CEA0404D4600133102B7FF443AF03B0BC
:102B2000BDE8F08F5446D4E70124D2E70224D0E771
:102B30000324CEE70424CCE70524CAE70624C8E72B
:102B4000003C014000000240003802400AB18161AF
:102B500070470904FBE70000044B01221A60044B94
:102B600082B01B680193019B02B0704720000E42A7
:102B700000700040044B00221A60044B82B01B68B6
:102B80000193019B02B0704720000E42007000408C
:102B90002DE9F341044640B30368DD0710D42368F0
:102BA00098075ED423681A0700F1A08023685B07AA
:102BB00000F1BE80A069002840F01F8100202BE0BA
:102BC000A64B9A6802F00C02042A07D09A6802F019
:102BD0000C02082A0BD15A68510208D59F4B1B687A
:102BE0009A03DCD56368002BD9D1012014E0626818
:102BF000B2F5803F13D11A6842F480321A60FFF7B1
:102C00002DFB964E054633689B03C8D4FFF726FB81
:102C1000401B6428F7D9032002B0BDE8F0818F4D36
:102C2000B2F5A02F2B6807D143F480232B602B68CB
:102C300043F480332B60E2E723F480332B602B686E
:102C400023F480232B60002AD9D1FFF707FB064627
:102C50002B689F03A3D5FFF701FB801B6428F7D9DE
:102C6000D9E77E4B9A6812F00C0F07D09A6802F0F1
:102C70000C02082A11D15B685E020ED4774B1A68E9
:102C8000950702D5E268012AAFD11A68216922F0BE
:102C9000F80242EAC1021A6084E7E268704BB2B1FE
:102CA00001221A60FFF7DAFA6C4D06462B68980786
:102CB00007D52B68226923F0F80343EAC2032B608F
:102CC00070E7FFF7CBFA801B0228EFD9A3E71A6061
:102CD000FFF7C4FA614E0546336899077FF562AF86
:102CE000FFF7BCFA401B0228F6D994E762695D4BF6
:102CF0007AB101221A60FFF7B1FA584E0546736F98
:102D00009F073FF553AFFFF7A9FA401B0228F6D9FA
:102D100081E71A60FFF7A2FA504E0546736F9807D5
:102D20007FF544AFFFF79AFA401B0228F6D972E705
:102D30004A4B1A6C12F0805228D101921A6C42F060
:102D400080521A641B6C03F080530193019B01278E
:102D5000454D2B68D9051BD5A368404D012B27D1C4
:102D60002B6F43F001032B67FFF778FA3B4E0546C4
:102D700041F28838336F9B0739D5002F3FF41AAFE3
:102D8000364A136C23F08053136413E70027DFE700
:102D90002B6843F480732B60FFF760FA06462B68BC
:102DA000DA05D9D4FFF75AFA801B0228F7D932E79F
:102DB000052B04D12B6F43F004032B67D0E72A6F58
:102DC00022F001022A672A6F22F004022A67002BF0
:102DD000CAD1FFF743FA41F2883806462B6F9807AD
:102DE000CBD5FFF73BFA801B4045F7D913E7FFF738
:102DF00035FA401B4045BDD90DE7184DAB6803F0CF
:102E00000C03082B47D0194E00230228336035D11C
:102E1000FFF724FA07462B68990129D4D4E9073231
:102E20001343626A43EA8213E26A43EA0263A26AD4
:102E30005208013A43EA02436B6001233360FFF713
:102E40000DFA064D04462B689A013FF5B7AEFFF721
:102E500005FA001B0228F6D9DDE600BF0038024063
:102E600000004742800E4742007000406000474229
:102E7000FFF7F4F9C01B0228CDD9CCE6FFF7EEF935
:102E800004462B689B017FF599AEFFF7E7F9001B1D
:102E90000228F6D9BFE601283FF4BEAE6B68E269AE
:102EA00003F4800191427FF4A0AE216A03F03F0257
:102EB0008A427FF49AAE616A47F6C0721A40B2EB5A
:102EC000811F7FF492AEA26A520803F44031013AA6
:102ED000B1EB024F7FF489AEE26A03F07063B3EBAB
:102EE000026F3FF46BAE80E6134908B58B6803F0C0
:102EF0000C03042B1CD0082B1CD14A684B68496872
:102F000013F4800314BF0D480D48C1F3881118BF96
:102F1000002302F03F02A1FB0001FDF7BFFD064BBD
:102F20005B68C3F3014301335B00B0FBF3F008BD02
:102F30000248FCE70248FAE70038024040787D0189
:102F40000024F4002DE9F0410D46044610B901209B
:102F5000BDE8F081444B1A6802F007028A4228D388
:102F6000226897072DD4D00741D43F4B1A6802F04E
:102F70000702AA4266D8226851076CD4130707D506
:102F80003A4A2169936823F4604343EAC10393609A
:102F9000FFF7AAFF354B364A9B68C3F30313D35C94
:102FA000D840344B1860344B1868FFF70DF90020F7
:102FB000CEE7CAB21A701B6803F007038B42C6D172
:102FC000CEE72A4B12F0040F1EBF996841F4E0517E
:102FD0009960160742BF996841F46041996023499E
:102FE000A0688B6823F0F00303438B60BBE7626843
:102FF0001E4B012A1CD11B6813F4003FA7D01B4EA7
:10300000B36823F003031343B360FFF727F941F2DA
:1030100088380746B368626803F00C03B3EB820F8D
:10302000A3D0FFF71BF9C01B4045F3D903208FE75E
:10303000911E01291B6802D813F0007FDEE713F010
:10304000020FDBE7EAB21A701B6803F00703AB421A
:103050007FF47DAF8FE70549E0688B6823F4E05388
:1030600003438B608AE700BF003C02400038024007
:10307000E06A00080C00002014000020044B054A00
:103080009B68C3F38223D35C034A1068D84070471F
:1030900000380240F06A00080C000020044B054A8A
:1030A0009B68C3F34233D35C034A1068D84070472F
:1030B00000380240F06A00080C000020036A23F088
:1030C00001030362036A70B5446882690D6822F0E7
:1030D00073022A438D6823F002032B430E4DA8424E
:1030E00002D00E4EB04210D1CE6823F00803334315
:1030F000A84223F0040302D0084DA84205D1D1E92B
:10310000055624F4407435432C43446082614A6878
:103110004263036270BD00BF000001400004014033
:10312000036A23F480730362036A70B54468C2695A
:103130000D6822F073022A438D6823F4007343EA7A
:103140000523114DA84203D005F58065A84214D18E
:10315000CD6823F4006343EA05230B4DA84223F412
:10316000806303D005F58065A84206D1D1E90556F4
:1031700024F44054354344EA05144460C2614A686B
:10318000C263036270BD00BF00000140036A23F404
:1031900080530362036A30B54468C2690D6822F443
:1031A000E64242EA05228D6823F4005343EA0533E0
:1031B000084DA84203D005F58065A84204D14D69A9
:1031C00024F4804444EA85144460C2614A6802647D
:1031D000036230BD0000014090F83D30012B2CD13E
:1031E0000223174A80F83D30036893421AD0B3F1A6
:1031F000804F17D0A2F57C42934213D002F5806233
:1032000093420FD002F5806293420BD002F57842D0
:10321000934207D002F57052934203D0A2F5943244
:10322000934204D19A6802F00702062A03D01A6872
:1032300042F001021A60002070470120704700BF71
:10324000000001407047704730B590F83E2090F87C
:103250003F3090F8425090F84340D2B2DBB2EDB22A
:10326000E4B2C9B9012A46D1012D46D1022380F822
:103270003E3080F8423003681A6A22F001021A6276
:103280001A6A42F001021A620268136843F00103ED
:1032900013600023184630BD042911D1012B2AD117
:1032A000012CF7D1022380F83F3080F843300368C7
:1032B0001A6A22F010021A621A6A42F01002E2E759
:1032C000012A18D1012B18D1012DE3D1012CE1D114
:1032D000022380F83E3080F83F3080F8423080F89A
:1032E000433003681A6A22F001021A621A6A42F035
:1032F00001021A62DCE70123CCE71346CAE708297A
:1033000010D004D841B1042909D0002070470C29FD
:10331000FBD10368186C70470368586B70470368EB
:10332000986B70470368D86B704770477047704759
:10333000704703681A69910710B504460ED5DA681C
:1033400092070BD56FF002021A61012202779B6986
:103350009B0777D0FEF7D0F80023237723681A69FC
:10336000500710D5DA6851070DD56FF004021A61C5
:10337000022222779B6913F4407F204668D0FEF733
:10338000BBF80023237723681A6912070FD5DA6880
:1033900010070CD56FF008021A6104222277DB694E
:1033A000990720465AD0FEF7A7F800232377236811
:1033B0001A69D20610D5DA68D0060DD56FF0100262
:1033C0001A6108222277DB6913F4407F20464BD034
:1033D000FEF792F80023237723681A69D10708D5EE
:1033E000DA68D20705D56FF001021A612046FFF7AF
:1033F0009CFF23681A69100608D5DA68110605D5FE
:103400006FF080021A61204600F0DDFC23681A6923
:10341000520608D5DA68500605D56FF040021A61E9
:103420002046FFF785FF23681A69910622D5DA68DE
:1034300092061FD56FF0200220461A61BDE81040A9
:1034400000F0C0BCFFF772FF2046FFF770FF83E774
:10345000FFF76CFF2046FFF76AFF92E7FFF766FF72
:103460002046FFF764FFA0E7FFF760FF2046FFF765
:103470005EFFAFE710BD0000304A0368904212D0F3
:10348000B0F1804F0FD0A2F57C4290420BD002F5F4
:103490008062904207D002F58062904203D002F52C
:1034A0007842904219D14A6823F070031343234AAB
:1034B000904229D0B0F1804F26D0A2F57C429042B4
:1034C00022D002F5806290421ED002F580629042C6
:1034D0001AD002F57842904216D0194A904213D081
:1034E00002F5806290420FD002F5806290420BD0CC
:1034F000A2F59832904207D002F58062904203D044
:1035000002F58062904203D1CA6823F440731343EA
:103510004A6923F08003134303608B68C3620B681E
:103520008362064B984203D003F58063984201D131
:103530000B69036301234361704700BF0000014032
:103540000040014010B5044630B390F83D3003F020
:10355000FF021BB980F83C20FEF758FC02232068CC
:1035600084F83D30211DFFF787FF012384F84630A2
:10357000002084F83E3084F83F3084F8403084F8EE
:10358000413084F8423084F8433084F8443084F881
:10359000453084F83D3010BD0120FCE710B50446ED
:1035A00030B390F83D3003F0FF021BB980F83C20A7
:1035B000FFF748FE0223206884F83D30211DFFF705
:1035C0005BFF012384F84630002084F83E3084F805
:1035D0003F3084F8403084F8413084F8423084F839
:1035E000433084F8443084F8453084F83D3010BDD1
:1035F0000120FCE710B5044630B390F83D3003F0ED
:10360000FF021BB980F83C20FFF71DFE0223206853
:1036100084F83D30211DFFF72FFF012384F8463049
:10362000002084F83E3084F83F3084F8403084F83D
:10363000413084F8423084F8433084F8443084F8D0
:10364000453084F83D3010BD0120FCE7F8B50D464B
:10365000044600284DD090F83D3003F0FF021BB91E
:1036600080F83C20FEF752FC2146022384F83D30CE
:1036700051F8040B836823F4804323F0070383602D
:10368000FFF7FAFE20682B6886688269A968076AD6
:103690001E43AB6922F4407222F0030241EA032385
:1036A000134323F47C422B69E9691B0143EA01239C
:1036B000E9680B43296A22F0FC0243EA0133134311
:1036C000696927F0AA026F68866047EA011783617B
:1036D00017430123076284F84630002084F83E3007
:1036E00084F83F3084F8423084F8433084F83D3029
:1036F000F8BD0120FCE70000036A23F01003036219
:10370000036A70B5446882690D6822F4E64242EAB1
:1037100005228D6823F0200343EA0513104DA842CB
:1037200003D005F58065A84214D1CD6823F080034D
:1037300043EA05130A4DA84223F0400303D005F5E0
:103740008065A84206D1D1E9055624F4406435438A
:1037500044EA8504446082614A688263036270BD02
:103760000000014070B590F83C30012B054614462E
:1037700054D00122082C80F83C203ED007D8CCB190
:10378000042C29D0002385F83C30104670BD0C2C49
:10379000F8D10068FFF7FAFC2B680969DA6942F48E
:1037A0000062DA61DA6922F48062DA61DA6942EA97
:1037B000012231E00068FFF781FC2B6809699A69F2
:1037C00042F008029A619A6922F004029A619A69A9
:1037D0000A439A610022D5E70068FFF78DFF2B6846
:1037E00009699A6942F400629A619A6922F48062D6
:1037F0009A619A6942EA0122EBE70068FFF790FCC0
:103800002B680969DA6942F00802DA61DA6922F0A4
:103810000402DA61DA690A43DA61DBE70222B4E71B
:1038200070B5046A1A4E24F001040462B04284693F
:10383000056A29D0B0F1804F26D0A6F57C46B0426B
:1038400022D006F58066B0421ED006F58066B042F2
:103850001AD006F57846B04216D006F57056B0423A
:1038600012D0A6F59436B0420ED044F001021B01EE
:10387000DBB222F0F0021A4301F00A0125F00A033C
:1038800019438261016270BD24F003042243EEE714
:1038900000000140F8B590F83C30012B05460C467D
:1038A00000F08980012085F83C009AB9CB6828682F
:1038B000D1E90012FFF7B4FF2B68A1689A6922F0E2
:1038C0000C029A619A690A439A610020002385F8E4
:1038D0003C30F8BD042A23D12B681E6A26F010065E
:1038E000D1E90027C9681E6298691E6A20F44070F9
:1038F00040EA0720090320F4704089B21201014315
:1039000002F0A00226F0A000024399611A629A69AF
:10391000A16822F440629A619A6942EA0122D3E7DF
:10392000082A22D12B681E6A26F48076D1E900206D
:10393000C9681E62DF691E6A27F003073843090160
:1039400020F0F000C9B21202014302F4206226F412
:1039500020600243D9611A62DA69A16822F00C0280
:10396000DA61DA690A43DA61AFE70C2AAED12B6873
:103970001E6A26F48056D1E90027C9681E62D869FC
:103980001E6A20F4407040EA0720090320F47040CA
:1039900089B21203014302F4204226F4204002437C
:1039A000D9611A62DA69A16822F44062DA61DA69DF
:1039B00042EA0122D7E702208BE710B58468114361
:1039C00024F47F4441EA03232343836010BD70B590
:1039D00090F83C30012B04464FF0020300F0918038
:1039E000012280F83D3080F83C200068836823F491
:1039F0007F4323F0770383600B68602B52D033D86A
:103A0000402B67D016D8202B0DD00AD833F01001E8
:103A100009D0012384F83D30002384F83C3010465F
:103A200070BD302BF5D1826822F07002134343F051
:103A3000070317E0502BECD14A68CE68016A056A8B
:103A400025F001050562836921F00A0123F0F003E6
:103A500043EA06130A4383610262836823F070031A
:103A600043F05703836011E0B3F5805F0ED0B3F5E8
:103A7000005F0DD0702BCCD1CB68D1E90121FFF7CD
:103A80009CFF2268936843F0770393600022C0E7AD
:103A9000CB68D1E90121FFF790FF2268936843F4D6
:103AA0008043F2E74D68CE68016A21F0100101629F
:103AB0008269036A22F4704223F0A00343EA0513EB
:103AC00042EA063282610362836823F0700343F0A6
:103AD0006703C7E74A68CE68016A056A25F00105F1
:103AE0000562836921F00A0123F0F00343EA06131B
:103AF0000A4383610262836823F0700343F0470343
:103B0000B0E71A468BE7036A01F01F0110B50124E4
:103B10008C4023EA04030362036A8A401A43026268
:103B200010BD000010B5044629B990F83E30012BB5
:103B30001DD0012032E0042907D190F83F30012B3D
:103B4000F7D1022380F83F3014E0082907D190F81C
:103B50004030012BEDD1022380F840300AE090F88C
:103B60004130012BE5D1022380F8413002E00223ED
:103B700080F83E3001222068FFF7C5FF2368194A0C
:103B800093420CD018498B4209D0B3F1804F0DD12C
:103B90009A6802F00702062A1FD1002010BD596C56
:103BA000934241F400415964F2D0EEE70F4A934248
:103BB000EED002F580629342EAD002F58062934231
:103BC000E6D002F578429342E2D002F57052934279
:103BD000DED0A2F594329342DAD01A6842F00102A4
:103BE0001A60DAE7000001400004014000040040D0
:103BF000FFF798BF10B50446002943D190F83E3036
:103C000090F84200DBB2012BC0B272D1012870D112
:103C1000022300294CD1226884F83E3084F84230D7
:103C2000D36843F00203D36020680122FFF76BFFE3
:103C30002368314A93421AD0B3F1804F17D0A2F5CE
:103C40007C42934213D002F5806293420FD002F57A
:103C5000806293420BD002F57842934207D002F57E
:103C60007052934203D0A2F59432934204D19A68E1
:103C700002F00702062A03D01A6842F001021A6015
:103C8000002037E0042905D190F83F3090F8430038
:103C9000DBB2B8E708290BBF90F8403094F8413008
:103CA00090F8440094F845000CBFDBB2DBB2AAE701
:103CB000042908D1226884F83F3084F84330D3685F
:103CC00043F00403AFE7082908D1226884F84030A4
:103CD00084F84430D36843F00803A4E70C2984F83F
:103CE000413084F8453005D12268D36843F0100391
:103CF00099E7012010BD00BF0000014030B590F8E9
:103D00003C30012B4FF0020332D080F83D30036885
:103D10000D685C689A6824F070042C435C60154C54
:103D2000A3421AD0B3F1804F17D0A4F57C44A3422C
:103D300013D004F58064A3420FD004F58064A3423D
:103D40000BD004F57844A34207D004F57054A34285
:103D500003D0A4F59434A34204D1496822F0800230
:103D60000A439A60012380F83D30002380F83C30FC
:103D7000184630BD0000014090F83C30012B1FD0A8
:103D8000CB688A6823F4407313434A6823F4806342
:103D900013430A6823F4006313430A6923F480532E
:103DA00013434A6923F400531343CA6923F480433D
:103DB000134302685364002380F83C301846704770
:103DC0000220704770477047026802F10C0353E805
:103DD000003F23F490730C3242E80031026800295E
:103DE000F2D102F1140353E8003F23F0010302F182
:103DF000140C4CE800310029F3D1036B012B0BD1DB
:103E000002F10C0353E8003F23F0100302F10C0C05
:103E10004CE800310029F3D1202380F83E30002304
:103E2000036370470268C16838B5136923F44053CF
:103E30000B431361054683680069D16803436869D1
:103E40000343E86921F4164121F00C0103430B43BD
:103E5000D3605369A96923F440730B4353611F4B2B
:103E60009A4203D003F580639A4224D1FFF716F9F2
:103E7000EA691923B2F5004FA0FB0301D5E900431D
:103E80001CD11A4692184FF000035B41FCF706FE66
:103E90006421B0FBF1F501FB1503DB003233B3FB0A
:103EA000F1F303F007025B0002EB051203F4F87371
:103EB0001344A36038BDFFF7E1F8D9E79A009B0FE0
:103EC000FCF7ECFD6422B0FBF2F102FB11031B01D5
:103ED0003233B3FBF2F303EB0113EAE700100140C6
:103EE000F8B504460E4617461D462268136836EAA2
:103EF000030301D1002028E06B1CF7D025B1FEF7A9
:103F0000ADF9C01B8542F0D2226802F10C0353E8E0
:103F1000003F23F4D0730C3242E8003021680028BF
:103F2000F2D101F1140353E8003F23F0010301F142
:103F3000140040E80032002AF3D1202384F83D30F9
:103F400084F83C2084F83E300320F8BD10B50446C8
:103F500040B390F83D3003F0FF021BB980F83C20DD
:103F6000FEF774F82268242384F83D30D36823F4E4
:103F70000053D3602046FFF755FF23681A6922F4E7
:103F800090421A615A6922F02A025A61DA6842F4B0
:103F90000052DA6000202023206484F83D3084F849
:103FA0003E3010BD0120FCE7F7B5174690F83D20E4
:103FB0000093202A04460E4649D1002945D0002FFF
:103FC00043D090F83C20012A41D0012280F83C20C7
:103FD00000252122056480F83D20FEF73FF9A16805
:103FE000009BA784B1F5805F0246E78403D1216975
:103FF00009B935460E46002184F83C10E18C89B29F
:1040000041B940212046FFF76BFF60B9202384F8B7
:104010003D3009E080212046CDE90023FFF760FF15
:10402000DDE9002310B1032003B0F0BD20684EB9D4
:1040300035F8021BC1F308014160E18C013989B2F6
:10404000E184DBE716F8011BF6E70120ECE702202C
:10405000EAE77047704708B5806B0023C385C384C7
:10406000FFF7F8FF08BD704713B590F83E30222BDC
:1040700053D18168836A0268B1F5805F3DD10169DF
:1040800000293DD15268C2F3080223F8022BC48DE7
:104090008362013CA4B2C485002C2CD10368DA6889
:1040A00022F02002DA60DA6822F48072DA605A695B
:1040B00022F001025A61202380F83E30036B012B6D
:1040C000036827D1046303F10C0252E8002F22F0A9
:1040D000100203F10C0444E800210029F3D11A680E
:1040E000D20605D501911A6801925B680193019B84
:1040F000818DFFF7B8FF002010E039B9016929B9B7
:104100005268D2B21A70836A0133C0E7526802F073
:104110007F02F7E7FDF700FEEDE7022002B010BDD9
:10412000036837B51A68D9685D6912F00F0F044645
:1041300008D1950668D58D0666D503B0BDE8304038
:10414000FFF792BF05F0010001F4907505435BD0C5
:10415000D50705D5CB0542BF236C43F0010323648B
:10416000550704D518B1236C43F002032364930769
:1041700004D518B1236C43F004032364150707D555
:1041800001F0200303431EBF236C43F008032364A4
:10419000236C002B32D0900604D58A0602D5204627
:1041A000FFF762FF23685B69256C03F0400305F0AD
:1041B00008051D43204623D0FFF706FE22685369F9
:1041C0005B0618D502F1140353E8003F23F04003C7
:1041D00002F1140040E800310029F3D1A06B50B186
:1041E000724B0365FEF7C6FB40B1A06B036D03B0D5
:1041F000BDE8304018472046FFF72CFF03B030BD24
:10420000FFF728FF2564F9E7206B012840F0918033
:10421000D50640F18E80C80640F18B8000220192C5
:104220001A6801925A680192019A5A6955064CD54A
:10423000A16B0A68526892B2002ADFD0A08D90422A
:10424000DCD9E285CA69B2F5807F36D003F10C0271
:1042500052E8002F22F4807203F10C0040E80021A4
:104260000029F3D103F1140252E8002F22F00102D9
:1042700003F1140040E800210029F3D103F11402F6
:1042800052E8002F22F0400203F1140040E8002120
:104290000029F3D1202284F83E20216303F10C028F
:1042A00052E8002F22F0100203F10C0040E8002138
:1042B0000029F3D1A06BFEF719FBE38DA18DC91A7C
:1042C00089B22046FFF7CFFE98E7E18D8AB2E18DF3
:1042D00089B2002992D0A18D891A89B200298DD086
:1042E00003F10C0252E8002F22F4907203F10C0546
:1042F00045E800200028F3D103F1140252E8002F12
:1043000022F0010203F1140545E800200028F3D152
:10431000202284F83E20206303F10C0252E8002F93
:1043200022F0100203F10C0545E800200028F3D12B
:10433000C7E7100628D50D0626D594F83D20212A7A
:104340007FF45CAFA168226AB1F5805F17D1216963
:10435000A9B932F8021BC1F3080159602262E28C4C
:10436000013A92B2E284002A7FF448AFDA6822F080
:104370008002DA60DA6842F04002DA603EE7511CFF
:10438000216212785A60EAE750067FF537AF4A0695
:104390007FF534AFDA6822F04002DA60202384F837
:1043A0003D302046FFF755FE28E700BF5740000884
:1043B000C285828522230022026480F83E30036891
:1043C00080F83C208162D96841F48071D9605969D4
:1043D00041F001015961D96841F02001D9601046CE
:1043E000704770B490F83E60202E10D161B15AB180
:1043F00090F83C40012C0AD0012480F83C40002475
:10440000046370BCFFF7D4BF012070BC704702206A
:10441000FBE70000EFF305832BB9064B186828B9BA
:1044200001221A6070476FF0050070474FF0FF30AF
:10443000704700BF1C03002010B5EFF305845CB982
:10444000084B1A68012A0AD1074AD47702221A6057
:1044500000F090FD204610BD6FF00500FBE74FF027
:10446000FF30F8E71C03002000ED00E0F0B587B056
:10447000144600220B460592EFF30582D2B9C8B16B
:10448000002C2FD0A569002D08BF1825691E3729DB
:10449000AC462BD86168C90728D466696EB1B208EA
:1044A000D4E9027E216857B1BEF15B0F02D92469BD
:1044B00004B1EEB9059807B0F0BD8022F0E7BEF177
:1044C000000FF7D12469002CF4D10C4605A9CDE9E1
:1044D00000C192B2214600F01FFD01281CBF00233D
:1044E0000593E7E74FF0180C8022EFE71046E2E76C
:1044F000CDE90147009500F0D7FC0590DAE710B54B
:10450000EFF3058424B910B100F090FE204610BDF1
:104510006FF00500FBE70000034B0360034B0B60EB
:1045200080231360704700BFC0020020C00000203D
:10453000034B0360034B0B604FF4807313607047B1
:10454000200700202003002000F108034FF0FF3275
:10455000C0E9022343600361002303607047002326
:104560000361704743684B609A688A609A6851603B
:1045700099600368086101330360704730B50C68C7
:10458000631C0AD103695A684A6091608B60596064
:10459000036808610133036030BD00F1080213466F
:1045A00052681568A542FAD9EDE7D0E9011203690E
:1045B0008A6051605968814208BF5A6000220261D6
:1045C0001A68013A1A601868704710B5044601F07D
:1045D00001FAA46B01F020FAB4FA84F0400910BD8E
:1045E000F8B51546026C866B044652B9076847BB9E
:1045F000806800F055FFA76005460136A66328468F
:10460000F8BD65B9406801F0BFFD6368226C1344D2
:10461000A26863609342F0D323686360EDE7C068EB
:1046200001F0B2FD226CE36851429B1A2268E360FC
:1046300093423EBFA3685B18E360022D01D116B11F
:10464000013E0025D9E73546D7E7034610B41A6C7A
:1046500008466AB1DC68996814448C4228BF19681E
:10466000DC6028BFD960D9685DF8044B01F08CBDCF
:104670005DF8044B704770B5044601F0ABF994F84F
:10468000455004F124066DB2002D14DCFF2384F89C
:10469000453001F0C1F901F09DF994F8445004F15E
:1046A00010066DB2002D12DCFF2384F84430BDE803
:1046B000704001F0B1B9636A002BE7D0304600F0DA
:1046C0004DFE08B100F0D6FE013D6DB2DCE7236976
:1046D000002BE9D0304600F041FE08B100F0CAFEE0
:1046E000013D6DB2DEE7000038B50D46044640B925
:1046F0004FF0500383F31188BFF36F8FBFF34F8FD9
:10470000FEE701F067F9D4E90F31226862604B439C
:10471000D0185B1A1344A060E3600020FF23A0635D
:1047200084F8443084F8453095B9236963B104F1C5
:10473000100000F013FE38B10A4B4FF080521A609F
:10474000BFF34F8FBFF36F8F01F066F9012038BDC3
:1047500004F11000FFF7F8FE04F12400FFF7F4FE67
:10476000F2E700BF04ED00E013B51C4640B94FF07E
:10477000500383F31188BFF36F8FBFF34F8FFEE7B2
:1047800043B94FF0500383F31188BFF36F8FBFF32A
:104790004F8FFEE74AB191B94FF0500383F3118870
:1047A000BFF36F8FBFF34F8FFEE741B14FF0500360
:1047B00083F31188BFF36F8FBFF34F8FFEE7502352
:1047C0000193019B502B08D04FF0500383F31188C5
:1047D000BFF36F8FBFF34F8FFEE7002908BF22465C
:1047E000019B22600123C4E90F0184F84630194679
:1047F0002046FFF779FF9DF8103084F84C302046B2
:1048000002B010BD2DE9FF47884601921F460446BD
:1048100040B94FF0500383F31188BFF36F8FBFF39C
:104820004F8FFEE751B9036C43B14FF0500383F350
:104830001188BFF36F8FBFF34F8FFEE7022F0BD1AD
:10484000E36B012B08D04FF0500383F31188BFF3C3
:104850006F8FBFF34F8FFEE700F012FE064650B990
:10486000019B4BB14FF0500383F31188BFF36F8F5F
:10487000BFF34F8FFEE70026DFF8E8A04FF00009F6
:1048800037E0019D1DB901F0C7F8002050E016B9CE
:1048900002A800F0A7FD01F0BFF800F0AFFB01F0A7
:1048A00099F894F84430FF2B08BF84F8449094F8AA
:1048B0004530FF2B08BF84F8459001F0ADF801A901
:1048C00002A800F09BFD002846D101F083F8A26BFE
:1048D000E36B9A422FD101F09FF8019904F1100087
:1048E00000F004FD2046FFF7C6FE00F02BFC50B39D
:1048F000012601F06FF8A26BE36B9A4201D3022FFD
:10490000BFD13A4641462046FFF76AFE636A1BB1B3
:1049100004F1240000F022FD38B1124B4FF0805218
:104920001A60BFF34F8FBFF36F8F01F075F801204E
:1049300004B0BDE8F08701F06FF82046FFF79BFE5A
:1049400000F000FCD4E74FF08053CAF80030BFF30A
:104950004F8FBFF36F8FCBE72046FFF78CFE00F041
:10496000F1FB92E704ED00E02DE9F843894690461B
:104970001F46044640B94FF0500383F31188BFF33C
:104980006F8FBFF34F8FFEE751B9036C43B14FF008
:10499000500383F31188BFF36F8FBFF34F8FFEE790
:1049A000022F0BD1E36B012B08D04FF0500383F3A0
:1049B0001188BFF36F8FBFF34F8FFEE701F026F929
:1049C000EFF311864FF0500383F31188BFF36F8F1D
:1049D000BFF34F8FA26BE36B9A4201D3022F23D117
:1049E00094F84550A36B6DB23A4649462046FFF70E
:1049F000F7FD6B1C13D1636A0BB901200BE004F1C6
:104A0000240000F0ABFC0028F7D0B8F1000FF4D080
:104A10000120C8F8000086F31188BDE8F88301354D
:104A20006DB284F84550E8E70020F4E72DE9F04343
:104A300085B00F460192044640B94FF0500383F30E
:104A40001188BFF36F8FBFF34F8FFEE751B9036C2F
:104A500043B14FF0500383F31188BFF36F8FBFF35F
:104A60004F8FFEE700F00CFD064650B9019B4BB19D
:104A70004FF0500383F31188BFF36F8FBFF34F8F55
:104A8000FEE70026DFF8E0904FF000083BE0019DD4
:104A90001DB900F0C1FF002052E016B902A800F0D5
:104AA000A1FC00F0B9FF00F0A9FA00F093FF94F820
:104AB0004430FF2B08BF84F8448094F84530FF2B26
:104AC00008BF84F8458000F0A7FF01A902A800F004
:104AD00095FC00283DD12046FFF777FD98B301995A
:104AE00004F1240000F002FC2046FFF7C4FD00F0B2
:104AF00029FB38B94FF08053C9F80030BFF34F8F0E
:104B0000BFF36F8F012600F065FFA56B002DBED0AF
:104B100039462046013DFFF798FDA563236963B13F
:104B200004F1100000F01AFC38B10F4B4FF0805226
:104B30001A60BFF34F8FBFF36F8F00F06DFF01203E
:104B400005B0BDE8F0832046FFF795FD00F0FAFAC6
:104B5000D8E72046FFF78FFD00F0F4FA2046FFF774
:104B600034FD0028CED096E704ED00E030B5074ACA
:104B7000002352F8335002EBC3041DB942F833103E
:104B8000606030BD0133082BF3D1FAE77C4D002083
:104B900070B504460D46164600F01CFF94F84430EC
:104BA000FF2B04BF002384F8443094F84530FF2BDA
:104BB00004BF002384F8453000F02EFFA36B2BB90F
:104BC0003246294604F1240000F0AAFB2046BDE845
:104BD0007040FFF750BD00002DE9F041044600F0A1
:104BE000F9FE2F4B2F4D1A682F4F01321A602E6895
:104BF000002E49D12C601B68012B1FD1B8464046BE
:104C00000136FFF7A1FC382E08F11408F7D1DFF8C0
:104C1000C480264E4046FFF797FC3046FFF794FCD1
:104C20002348FFF791FC2348FFF78EFC2248FFF74B
:104C30008BFC224BC3F80080214B1E60214A136875
:104C400001331360204A63641168E36A14208B42C5
:104C500000FB037004F1040188BF1360FFF782FCBE
:104C600000F0DAFE194B1B6863B12B68DA6AE36A5D
:104C70009A4207D2164B4FF080521A60BFF34F8F03
:104C8000BFF36F8FBDE8F081104B1B68002BD5D1AF
:104C90002B68DA6AE36A9A4298BF2C60CEE700BFBD
:104CA000E80B00207C07002088070020100C002063
:104CB000300C00205C0C0020480C002080070020F5
:104CC00084070020F40B0020F80B0020440C002087
:104CD00004ED00E0FC0B0020064A13681968064B3F
:104CE00019B94FF0FF321A6070471268D268D26863
:104CF0005268F8E780070020240C00202DE9F047D7
:104D0000DDE909844FEA82094A4606460D46206BD2
:104D1000A5211F4601F046FA226BA9F1040991442E
:104D200029F00709ADB36B1E04F134020F3513F8F7
:104D3000011F02F8011B197809B1AB42F7D100231A
:104D400084F84330089D372D28BF37254FF0000ADF
:104D5000E562E564201DC4F850A0FFF700FCC5F132
:104D6000380504F11800FFF7FAFBC4F854A02461D9
:104D7000A561646284F858A03A463146484600F07E
:104D8000FBFD2060B8F1000F01D0C8F80040BDE87D
:104D9000F08784F83450D5E710B590F859300446C0
:104DA0003BB9006B01F016F82046BDE8104001F059
:104DB00011B8012BF9D0022B08D04FF0500383F328
:104DC0001188BFF36F8FBFF34F8FFEE710BD000058
:104DD00080B5DFF85C80124F124C134D236863B925
:104DE000124B1B68012BF8D94FF08053C8F80030E4
:104DF000BFF34F8FBFF36F8FEEE700F0EBFDFB6863
:104E0000DE68301DFFF7D1FB2B68013B2B60236868
:104E1000013B236000F000FE3046FFF7BDFFDDE7F9
:104E20005C0C0020EC0B0020E80B00208807002021
:104E300004ED00E0F8B5164B164E1D6804463068C8
:104E400004300F46FFF7B1FB631C334607D137B17F
:104E500031681148BDE8F8400431FFF783BB1A6898
:104E60002C19546007D30D4A10681968BDE8F84042
:104E70000431FFF783BB0A4A106819680431FFF751
:104E80007DFB084B1A68A24288BF1C60F8BD00BFBA
:104E9000700C00207C070020480C002084070020B4
:104EA00080070020240C002070B586B0DDE90B548B
:104EB00045B94FF0500383F31188BFF36F8FBFF3F1
:104EC0004F8FFEE744B94FF0500383F31188BFF3CF
:104ED0006F8FBFF34F8FFEE75C260596059E5C2E15
:104EE00008D04FF0500383F31188BFF36F8FBFF3E7
:104EF0004F8FFEE72563022584F8595004AD0195D4
:104F00000A9D02940095059EFFF7F8FE2046FFF7E4
:104F100063FE049806B070BD2DE9F043074685B0E6
:104F2000900088461646994600F0C2FE0546E8B154
:104F30005C2000F0BDFE0446A8B1002380F8593083
:104F40000D9B056301930C9B0290009332464B46E8
:104F500041463846FFF7D2FE2046FFF73DFE0120CE
:104F600005B0BDE8F083284600F034FF4FF0FF3075
:104F7000F6E7000010B588B0002407AA06A905A826
:104F8000CDE90544FFF7C8FA059B0293069B079AF3
:104F900015491648CDE900432346FFF785FFA8B120
:104FA00000F014FB012813D14FF0500383F3118854
:104FB000BFF36F8FBFF34F8F0D4B4FF0FF321A606F
:104FC0000C4B18600C4B1C6000F09CFD08B010BD31
:104FD0000130FBD14FF0500383F31188BFF36F8F83
:104FE000BFF34F8FFEE700BFF86A0008D14D0008FD
:104FF000240C0020440C0020700C0020024A13688E
:1050000001331360704700BFF00B0020014B18689C
:10501000704700BF700C00203F4B1B682DE9F74F15
:10502000002B73D13D4B1D6801351D60BDB93C4B54
:105030001A68126842B14FF0500383F31188BFF32E
:105040006F8FBFF34F8FFEE7364A196810681860FC
:105050001160354A136801331360FFF73DFE334E8C
:10506000334F3368DFF8D4809D424FF0000411D2F3
:10507000D8F80030DA6A14235343FB58022B2D4B27
:105080001B6828BF0124002B18BF0124204603B051
:10509000BDE8F08FDFF88890DFF8A4A0D9F80030E1
:1050A0001B681BB94FF0FF333360E1E7D9F80030DC
:1050B000DB68D3F80CB0DBF80420954201D23260F3
:1050C000D6E70BF1040108460191FFF76EFADBF811
:1050D0002820019922B10BF11800FFF766FA019917
:1050E000DBF82C00DAF800201423904288BFCAF8BD
:1050F000000003FB0070FFF735FAD8F80010DBF86A
:105100002C20CB6A9A4228BF0124C7E70A4A1368B9
:10511000013313600024B9E7F00B0020700C00206D
:105120008007002084070020280C0020240C002089
:1051300088070020740C00202C0C00207C07002025
:10514000F80B0020F7B5304C236843B94FF05003FB
:1051500083F31188BFF36F8FBFF34F8FFEE700F02B
:1051600039FC2368013B236024682CB1002400F043
:1051700053FC204603B0F0BD244B1B68002BF5D038
:10518000234D244E244F1EE0EB68DC6804F1180028
:10519000FFF70BFA211D08460191FFF706FAE36AB3
:1051A000326801991420934200FB037088BF33607A
:1051B000FFF7D8F9194BE26A1B68DB6A9A4202D3FF
:1051C000174B01221A602B68002BDDD10CB1FFF7C1
:1051D00083FD144D2C6844B1114E0127FFF71CFFCD
:1051E00000B13760013CF9D12C600D4B1B68002BDE
:1051F000BCD00D4B4FF080521A60BFF34F8FBFF3FE
:105200006F8F0124B3E700BFF00B0020E80B0020F4
:10521000300C0020F80B0020880700207C070020BD
:10522000740C00202C0C002004ED00E008B540B9FF
:105230000E4B4FF080521A60BFF34F8FBFF36F8F4A
:1052400008BD0B4B196841B14FF0500383F311882F
:10525000BFF36F8FBFF34F8FFEE7FFF7CFFEFFF770
:10526000E9FDFFF76FFF0028E2D0E9E704ED00E079
:10527000F00B0020184B1A68184BF0B512B1012240
:105280001A60F0BD164D1A60164A2B681427164690
:1052900007FB03F1501854588CB144680831646816
:1052A00044600A44944204BF62684260142202FBD4
:1052B00003625268D1680C4A11602B60E1E743B980
:1052C0004FF0500383F31188BFF36F8FBFF34F8FFD
:1052D000FEE7013BDCE700BFF00B0020740C002070
:1052E000F80B0020880700207C07002010B50C4632
:1052F00040B94FF0500383F31188BFF36F8FBFF3B2
:105300004F8FFEE7054B19681831FFF737F9204634
:105310000121BDE81040FFF78DBD00BF7C070020D4
:1053200038B50D46144640B94FF0500383F3118849
:10533000BFF36F8FBFF34F8FFEE7074B196818312C
:10534000FFF710F9002C21460CBF28464FF0FF3024
:10535000BDE83840FFF76EBD7C070020C36813B579
:10536000DC6844B94FF0500383F31188BFF36F8FAB
:10537000BFF34F8FFEE704F1180108460191FFF7D4
:1053800014F9124B01991B68EBB9211D08460191D4
:10539000FFF70BF90E4AE36A10680199834288BF50
:1053A00013600C4A142000FB0320FFF7DBF80A4BC4
:1053B000E26A1B68DB6A9A4285BF084B0120002025
:1053C000186002B010BD0648EFE700BFF00B0020E8
:1053D000F80B0020880700207C070020740C0020B8
:1053E000300C0020034B1B680360034B1B684360B9
:1053F000704700BF280C0020700C002070B50C46D0
:10540000054640B94FF0500383F31188BFF36F8F07
:10541000BFF34F8FFEE741B94FF0500383F311887C
:10542000BFF36F8FBFF34F8FFEE700F0D3FA0F4B40
:10543000196823685A1C10D00D482E6800686A68E5
:10544000864201D08A420FD9881A83420AD95B1A50
:10545000134423602846FFF7C5FF002400F0DCFA60
:10546000204670BD002323600124F7E7700C002064
:10547000280C0020014B01221A607047740C002098
:10548000054B1B6833B1054B1B68002B0CBF02207A
:105490000020704701207047440C0020F00B0020D2
:1054A00013B510B9002002B010BD1C4B1C6884421B
:1054B00008D04FF0500383F31188BFF36F8FBFF311
:1054C0004F8FFEE7236D43B94FF0500383F31188EC
:1054D000BFF36F8FBFF34F8FFEE7E16AE26C013BD2
:1054E00091422365DED0002BDCD1211D08460191BD
:1054F000FFF75BF8E36C0199E362C3F13802A26144
:10550000074A1068834288BF1360064A142000FBD4
:105510000320FFF727F80120C5E700BF7C07002024
:10552000F80B002088070020F7B5114C00F052FA64
:105530002568BDB90F4F104E3846FFF705F83046C5
:10554000FFF702F80D4B0E4A1F600E4B10211E6034
:105550000A200D4B0095FFF707F9206010B10B49A9
:10556000FFF704FB03B0BDE8F04000F055BA00BF00
:105570009C0D0020200D0020340D0020780C002010
:10558000800C00207C0C00204C0D0020FD6A0008DF
:10559000914208B5416000610AD8D21A83699A42E3
:1055A0000DD2084B011D1868FEF7E8FF002008BD6A
:1055B0009A4201D2994202D2034B011DF3E7012026
:1055C000F5E700BF7C0C0020780C002010B588B0F7
:1055D000FFF7AAFF124B1B68B3B1002407AA06A964
:1055E00005A8CDE90544FEF7A3FF059B0293069BA2
:1055F000019302230093079A0A490B482346FFF7B9
:1056000053FC0A4B186040B94FF0500383F31188E4
:10561000BFF36F8FBFF34F8FFEE7012008B010BDBF
:105620009C0D0020026B000805570008A00D00200B
:105630007FB5164604461A4640B94FF0500383F32F
:105640001188BFF36F8FBFF34F8FFEE70D4D2868B2
:1056500080B10529CDE9001602940DDCFFF710FF9B
:105660000023022808BF089A286818BF1A4669460E
:10567000FFF7C8F804B070BD00236946FFF774F95E
:10568000F8E700BF9C0D0020F0B51C4D85B0002749
:105690002B681A682AB91A4A11682960136005B084
:1056A000F0BDDB68DC681E68211D08460391FEF72B
:1056B0007CFF236A2046984794F82830039913F01A
:1056C000040FE5D0A36933449E4205D22868636085
:1056D0002461FEF753FFDBE70023009732461946AB
:1056E0002046FFF7A5FF0028D2D14FF0500383F3E7
:1056F0001188BFF36F8FBFF34F8FFEE7780C002048
:105700007C0C00202DE9F04F774FDFF8ECA187B03B
:10571000B9463B68D3F800B0BBF1000F28D0DB6876
:10572000D3F800B00024714EFFF768FCFFF76EFC61
:10573000336898420546B0461CD330601CB36C4BAE
:105740001B681C68B4FA84F464096A4B2246186822
:10575000ABEB0501FFF71CFAFFF7F4FC78B94FF04B
:105760008053CAF80030BFF34F8FBFF36F8F06E04E
:105770000124D8E7FFF788FF3560FFF7E3FC5D4EB3
:105780004FF0000B35E08345DFD8FFF7DBFCD9F89D
:105790000030DB68DE68301DFEF707FF96F8283022
:1057A000580718D5B1695B462A4659443046FFF779
:1057B000EFFEA0B1009423465A4621463046FFF73B
:1057C00037FF60B94FF0500383F31188BFF36F8F39
:1057D000BFF34F8FFEE723F0010386F82830336ACA
:1057E00030469847CBE7039B05999847029B002BCF
:1057F0000ADA3068002202A9FFF718F9002888D0D9
:10580000029B0498002BEEDB049C6369A3B9FFF7AD
:10581000FDFBD8F800309842054601D2FFF734FF6F
:10582000029BC8F80050092BE3D8DFE803F0090910
:1058300009343B540909343B201DFEF7B6FEE6E768
:1058400094F82830A16943F0010384F82830039BC1
:105850002A4619442046FFF79BFE0028C9D0236A38
:105860002046984794F828305907C2D5A269039971
:10587000CDF800B000230A4420461946FFF7D8FEB1
:105880000028B6D14FF0500383F31188BFF36F8F18
:10589000BFF34F8FFEE794F8283023F0010384F81C
:1058A0002830A6E794F828300399A16143F001035A
:1058B00084F8283041B94FF0500383F31188BFF3C7
:1058C0006F8FBFF34F8FFEE72B462A4629442046B1
:1058D000FFF75EFE8DE794F828309A07DDD4204666
:1058E00000F078FA85E700BF780C0020480D002012
:1058F0007C0C00209C0D002004ED00E008480068AE
:10590000006880F308884FF0000080F3148862B6C6
:1059100061B6BFF34F8FBFF36F8F00DF00BF000092
:1059200008ED00E0DFF80C00016841F4700101604F
:105930007047000088ED00E082B0002301930D4B1A
:105940001B68013308D04FF0500383F31188BFF375
:105950006F8FBFF34F8FFEE74FF0500383F3118833
:10596000BFF36F8FBFF34F8F019B002BFCD002B0B2
:10597000704700BF180000204FF0807340F8043CCF
:10598000074B40F80C3C21F001016FF0020340F896
:10599000081C40F8202C40F8243C4438704700BFD5
:1059A000395900080000000000000000000000005D
:1059B000074B19680868B0E8F04F80F30988BFF317
:1059C0006F8F4FF0000080F311887047AFF30080B5
:1059D0007C0700204FF0500383F31188BFF36F8FD3
:1059E000BFF34F8F0A4A13680133012B13600DD1A7
:1059F000084B1B6813F0FF0F08D04FF0500383F3E0
:105A00001188BFF36F8FBFF34F8FFEE7704700BF62
:105A10001800002004ED00E0084A136843B94FF075
:105A2000500383F31188BFF36F8FBFF34F8FFEE7EF
:105A3000013B13600BB983F31188704718000020F5
:105A4000EFF30980BFF36F8F154B1A681EF0100F2C
:105A500008BF20ED108A20E9F04F10602DE9090001
:105A60004FF0500080F31188BFF34F8FBFF36F8F5B
:105A7000FFF700FC4FF0000080F3118809BC1968A3
:105A80000868B0E8F04F1EF0100F08BFB0EC108AA5
:105A900080F30988BFF36F8F704700BFAFF30080BA
:105AA0007C07002008B54FF0500383F31188BFF343
:105AB0006F8FBFF34F8FFFF7AFFA18B1034B4FF063
:105AC00080521A60002383F3118808BD04ED00E0C2
:105AD000084A0949002313600B60084B4FF47A71A0
