:020000040800F2
:100000000000022069100008E90F0008EF0F000847
:10001000F50F0008FB0F00080110000800000000A9
:100020000000000000000000000000003161000836
:100030000710000800000000816300081510000888
:10004000B9100008B9100008B9100008B91000086C
:10005000B9100008B9100008B9100008B91000085C
:10006000B9100008B9100008B9100008B91000084C
:10007000B9100008B9100008B9100008B91000083C
:10008000B9100008B9100008B9100008B91000082C
:10009000B9100008B9100008B9100008B91000081C
:1000A000B9100008B9100008B9100008B91000080C
:1000B000B9100008B9100008B9100008B9100008FC
:1000C000B9100008B9100008B9100008B9100008EC
:1000D000B9100008B9100008B91000083110000864
:1000E000B9100008B9100008B9100008B9100008CC
:1000F000B9100008B9100008B9100008B9100008BC
:10010000B9100008B9100008B9100008B9100008AB
:10011000B9100008B9100008B9100008B91000089B
:10012000B9100008B9100008B9100008B91000088B
:10013000B9100008B9100008B9100008B91000087B
:10014000B9100008B9100008B9100008B91000086B
:10015000B9100008B9100008B9100008B91000085B
:10016000B9100008B9100008B9100008B91000084B
:10017000B9100008B9100008B9100008000000000C
:08018000B9100008B9100008D5
:1001900010B5054C237833B9044B13B10448AFF3C1
:1001A00000800123237010BD10000020000000001B
:1001B0005069000808B5034B1BB103490348AFF36E
:1001C000008008BD000000001400002050690008F5
:1001D00053B94AB9002908BF00281CBF4FF0FF31AE
:1001E0004FF0FF3000F06EB9ADF1080C6DE904CEB0
:1001F00000F006F8DDF804E0DDE9022304B0704702
:100200002DE9F047089D04468C46002B40F0838082
:100210008A42174647D9B2FA82F242B1C2F12000AF
:1002200024FA00F09140974040EA010C94404FEAD4
:100230001748230CBCFBF8F61FFA87FE08FB16C113
:1002400043EA014306FB0EF1994209D9FB1806F176
:10025000FF3080F01981994240F21681023E3B4402
:100260005B1AA4B2B3FBF8F008FB103344EA034472
:1002700000FB0EFEA64509D93C1900F1FF3380F0C2
:100280000581A64540F2028102383C4440EA06401E
:10029000A4EB0E0400261DB1D4400023C5E90043A1
:1002A0003146BDE8F08702B9FFDEB2FA82F2002AD9
:1002B00050D1CB1B4FEA174E1FFA87F80126B3FB2C
:1002C000FEFC210C0EFB1C3341EA034108FB0CF33E
:1002D0008B4207D979180CF1FF3002D28B4200F221
:1002E000E9808446C91AA3B2B1FBFEF00EFB1011DF
:1002F00043EA014408FB00F8A04507D93C1900F186
:10030000FF3302D2A04500F2D9801846A4EB0804BE
:1003100040EA0C40BFE78B4209D9002D00F0B180C4
:100320000026C5E9000130463146BDE8F087B3FA42
:1003300083F6002E4AD18B4202D3824200F2B8806B
:10034000841A61EB030101208C46002DA8D0C5E979
:10035000004CA5E7C2F1200320FA03F6974001FA0A
:1003600002F04FEA174ED9403043030CB1FBFEF6C2
:100370001FFA87F80EFB161143EA014306FB08F14A
:10038000994204FA02F409D9FB1806F1FF3C80F007
:100390008D80994240F28A80023E3B445B1A81B2D2
:1003A000B3FBFEF00EFB103341EA034100FB08F300
:1003B0008B4207D9791800F1FF3C73D28B4271D977
:1003C00002383944CB1A40EA064678E7C6F1200CD9
:1003D00003FA06F422FA0CF31C4320FA0CF701FA94
:1003E00006F34FEA144E21FA0CF11F433B0CB1FB0C
:1003F000FEF91FFA84F80EFB191143EA014109FBCB
:1004000008FA8A4502FA06F200FA06F308D96118DA
:1004100009F1FF3048D28A4546D9A9F102092144A1
:10042000A1EB0A01BFB2B1FBFEF00EFB101147EACF
:10043000014700FB08F8B84507D9E71900F1FF317B
:100440002ED2B8452CD90238274440EA0940A7EB00
:100450000807A0FB02894F45C64649461AD317D064
:100460005DB1B3EB0E0267EB010707FA0CFCF2403B
:100470004CEA0202F740C5E9002700263146BDE8F4
:10048000F0872E4628460BE70646E9E61846FDE6C5
:100490004345E5D2B8EB020E69EB04010138DFE712
:1004A0000846D2E760468DE78146B9E7664675E7BC
:1004B00030464AE7ACF1020C394413E702383C44B9
:1004C00024E700BF704700BF80B500AF00F0F6FD25
:1004D00000F03CF800F0B2FA00F0DCF900F032F97C
:1004E00000F092F800F080FA00F080F903F0A2FC2E
:1004F0000D4A00210D4803F0E7FC03460C4A136047
:100500000C4A00210C4803F0DFFC03460B4A136041
:100510000B4A00210B4803F0D7FC03460A4A13603C
:1005200003F0ACFCFEE700BFA06900089D0B0008CB
:100530003C490020C4690008AD0B0008CC490020EC
:10054000E8690008E90B0008A84A002080B594B0CB
:1005500000AF07F1200330220021184606F0F0F921
:1005600007F10C0300221A605A609A60DA601A617F
:100570000023BB60224B1B6C214A43F08053136461
:100580001F4B1B6C03F08053BB60BB6800237B6078
:100590001C4B1B681B4A43F480431360194B1B68B8
:1005A00003F480437B607B6802233B620123FB6290
:1005B00010233B630023BB6307F12003184601F0BF
:1005C00049F90346002B01D000F05AFB0F23FB60D2
:1005D00000233B6100237B610023BB610023FB619F
:1005E00007F10C030021184601F0ACFB0346002B79
:1005F00001D000F045FB00BF5037BD4680BD00BFB5
:10060000003802400070004080B596B000AF07F19E
:10061000480300221A605A609A60DA6007F14003CA
:1006200000221A605A6007F1240300221A605A60FF
:100630009A60DA601A615A619A613B1D202200219A
:10064000184606F07DF93D4B3D4A1A603B4BA0220F
:100650005A603A4B00229A60384B4FF47A72DA6053
:10066000364B00221A61354B00225A61334B00226F
:100670009A61324801F036FD0346002B01D000F0AC
:10068000FFFA4FF48053BB6407F1480319462B4827
:1006900002F08EF80346002B01D000F0F1FA274853
:1006A00001F06FFD0346002B01D000F0E9FA0023B2
:1006B0003B6400237B6407F1400319461F4802F0A6
:1006C0004FFC0346002B01D000F0DAFA60237B6276
:1006D0000023BB620023FB6200237B630023BB6318
:1006E0000023FB6307F124030C221946134801F091
:1006F0009DFF0346002B01D000F0C2FA00237B606F
:100700000023BB600023FB6000233B6100237B616F
:100710004FF40053BB6100233B623B1D1946074861
:1007200002F09AFC0346002B01D000F0A9FA03481E
:1007300000F0D0FB00BF5837BD4680BD184A0020EE
:100740000000014080B58CB000AF07F10C032422FB
:100750000021184606F0F4F83B1D00221A605A608A
:10076000214B4FF080421A601F4B00225A601E4BF3
:1007700000229A601C4B4FF0FF32DA601A4B0022C5
:100780001A61194B00229A610323FB6000233B612D
:1007900001237B610023BB610A23FB6100233B62D1
:1007A00001237B620023BB620A23FB6207F10C0377
:1007B00019460D4801F006FE0346002B01D000F05B
:1007C0005FFA00237B600023BB603B1D194606488F
:1007D00002F0C6FB0346002B01D000F051FA00BF27
:1007E0003037BD4680BD00BF604A002080B58CB068
:1007F00000AF07F10C0324220021184606F0A0F8F0
:100800003B1D00221A605A60204B214A1A601F4B80
:1008100000225A601D4B00229A601C4B4FF6FF725B
:10082000DA601A4B00221A61184B00229A610323E6
:10083000FB6000233B6101237B610023BB610A2332
:10084000FB6100233B6201237B620023BB620A231E
:10085000FB6207F10C0319460C4801F0B3FD034697
:10086000002B01D000F00CFA00237B600023BB605A
:100870003B1D1946054802F073FB0346002B01D0CF
:1008800000F0FEF900BF3037BD4680BDD0490020E2
:100890000004004080B596B000AF07F14803002285
:1008A0001A605A609A60DA6007F1400300221A6009
:1008B0005A6007F1240300221A605A609A60DA60D5
:1008C0001A615A619A613B1D20220021184606F0E8
:1008D00037F8434B434A1A60414B00225A60404B61
:1008E00000229A603E4B41F61F42DA603C4B0022E8
:1008F0001A613B4B00225A61394B00229A613848F9
:1009000001F0F0FB0346002B01D000F0B9F94FF4E1
:100910008053BB6407F148031946314801F048FF92
:100920000346002B01D000F0ABF92D4801F029FC63
:100930000346002B01D000F0A3F900233B64002301
:100940007B6407F140031946254802F009FB034682
:10095000002B01D000F094F960237B620023BB627E
:100960000023FB6200233B6300237B630023BB6304
:100970000023FB6307F1240300221946184801F005
:1009800055FE0346002B01D000F07AF907F124034D
:1009900004221946124801F049FE0346002B01D0FB
:1009A00000F06EF900237B600023BB600023FB6036
:1009B00000233B6100237B614FF40053BB610023A4
:1009C0003B623B1D1946064802F046FB0346002BDE
:1009D00001D000F055F900BF5837BD4680BD00BFBB
:1009E000404900200004014080B500AF114B124A7D
:1009F0001A60104B4FF4E1325A600E4B00229A609D
:100A00000C4B0022DA600B4B00221A61094B0C22BE
:100A10005A61084B00229A61064B0022DA610548B0
:100A200002F06CFB0346002B01D000F029F900BF57
:100A300080BD00BF884900200048004080B58AB0D2
:100A400000AF07F1140300221A605A609A60DA605E
:100A50001A6100233B614D4B1B6B4C4A43F0100362
:100A600013634A4B1B6B03F010033B613B6900238C
:100A7000FB60464B1B6B454A43F001031363434B3A
:100A80001B6B03F00103FB60FB680023BB603F4B63
:100A90001B6B3E4A43F0040313633C4B1B6B03F098
:100AA0000403BB60BB6800237B60384B1B6B374A79
:100AB00043F008031363354B1B6B03F008037B60A3
:100AC0007B6800233B60314B1B6B304A43F00203D1
:100AD00013632E4B1B6B03F002033B603B68002249
:100AE0004FF4BC612A4800F09BFE00220C212948EB
:100AF00000F096FE00224021274800F091FE4FF4BE
:100B0000BC637B610123BB610023FB6100233B626B
:100B100007F1140319461E4800F0E6FC0C237B6124
:100B20000123BB610023FB6100233B6207F1140337
:100B30001946184800F0D8FC30237B610023BB61C4
:100B40000023FB6107F114031946124800F0CCFCA6
:100B500020237B610023BB610023FB6107F11403A9
:100B600019460D4800F0C0FC40237B610123BB61A6
:100B70000023FB6100233B6207F11403194606487A
:100B800000F0B2FC00BF2837BD4680BD00380240EF
:100B90000010024000000240000C024080B582B00C
:100BA00000AF7860012003F021FAFBE780B582B046
:100BB00000AF786000210A4801F03CFB01220421CB
:100BC000084800F02DFE00220821064800F028FE0B
:100BD000034B1B6819225A63012003F007FAEDE763
:100BE000404900200000024080B586B000AF786028
:100BF0003C21204801F08CFC1F4B1B685B6A7B6129
:100C00001E4B3B6100F0C0FA02463B69D31AB3F5B4
:100C10007A7F2BD9184B1B685B6AFB60164B1B68ED
:100C20001B6803F01003102B10D1FA687B699A42FD
:100C300004DA7A69FB68D31ABB6017E0FB68C3F576
:100C40007F43FF337A691344BB600FE0FA687B6926
:100C50009A4204DDFA687B69D31ABB6006E07B69BF
:100C6000C3F57F43FF33FA681344BB60012003F0F0
:100C7000BDF9C7E740490020604A002089110008FB
:100C800080B400AF72B600BFFEE7000080B582B04E
:100C900000AF00237B60124B5B6C114A43F480432E
:100CA00053640F4B5B6C03F480437B607B680023D1
:100CB0003B600B4B1B6C0A4A43F080531364084B98
:100CC0001B6C03F080533B603B6800220F216FF0E8
:100CD000010000F040FB00BF0837BD4680BD00BFEB
:100CE0000038024080B58AB000AF786007F1140385
:100CF00000221A605A609A60DA601A617B681B6889
:100D0000234A93420ED100233B61224B5B6C214A64
:100D100043F0010353641F4B5B6C03F001033B6121
:100D20003B6930E07B681B681B4A93422BD1002350
:100D3000FB60184B5B6C174A43F002035364154B7E
:100D40005B6C03F00203FB60FB680023BB60114B8C
:100D50001B6B104A43F0040313630E4B1B6B03F031
:100D60000403BB60BB68C0237B610223BB6100231B
:100D7000FB6100233B6203237B6207F114031946E6
:100D8000064800F0B1FB00BF2837BD4680BD00BF5C
:100D90000000014000380240000401400008024009
:100DA00080B58CB000AF786007F11C0300221A6098
:100DB0005A609A60DA601A617B681B68B3F1804FF1
:100DC0004BD10023BB613F4B1B6C3E4A43F00103F8
:100DD00013643C4B1B6C03F00103BB61BB69002334
:100DE0007B61384B1B6B374A43F001031363354B70
:100DF0001B6B03F001037B617B6900233B61314B7B
:100E00001B6B304A43F0020313632E4B1B6B03F042
:100E100002033B613B694FF40043FB6102233B62E9
:100E200000237B620223BB620123FB6207F11C03E8
:100E30001946254800F058FB0823FB6102233B625A
:100E400000237B620223BB620123FB6207F11C03C8
:100E500019461E4800F048FB30E07B681B681C4ABE
:100E600093422BD10023FB60164B1B6C154A43F0B9
:100E700002031364134B1B6C03F00203FB60FB685B
:100E80000023BB600F4B1B6B0E4A43F0010313633F
:100E90000C4B1B6B03F00103BB60BB68C023FB6101
:100EA00002233B6200237B620023BB620223FB62BE
:100EB00007F11C031946044800F016FB00BF303749
:100EC000BD4680BD003802400000024000040240E0
:100ED0000004004080B588B000AF786007F10C03D3
:100EE00000221A605A609A60DA601A617B681B6897
:100EF000124A93421ED10023BB60114B1B6B104A58
:100F000043F0100313630E4B1B6B03F01003BB6025
:100F1000BB684FF48043FB6002233B6100237B618D
:100F20000023BB610123FB6107F10C03194605484F
:100F300000F0DAFA00BF2037BD4680BD0000014056
:100F4000003802400010024080B58AB000AF7860DF
:100F500007F1140300221A605A609A60DA601A617D
:100F60007B681B681D4A934234D100233B611C4BB4
:100F70001B6C1B4A43F480231364194B1B6C03F452
:100F800080233B613B690023FB60154B1B6B144ABC
:100F900043F004031363124B1B6B03F00403FB6069
:100FA000FB684FF440637B610223BB610023FB615C
:100FB00003233B6207237B6207F1140319460948A8
:100FC00000F092FA00220521272000F0C4F9272022
:100FD00000F0DDF900BF2837BD4680BD0048004065
:100FE000003802400008024080B400AFFEE780B441
:100FF00000AFFEE780B400AFFEE780B400AFFEE7CD
:1010000080B400AFFEE780B400AF00BFBD465DF81E
:10101000047B704780B500AF00F0A2F804F0F4FB49
:101020000346012B01D005F0DFF900BF80BD0000B1
:1010300080B500AF024802F0AFF800BF80BD00BF2E
:101040008849002080B400AF064BD3F88830054AA9
:1010500043F47003C2F8883000BFBD465DF8047BDE
:10106000704700BF00ED00E0DFF834D00D480E49B6
:101070000E4A002302E0D458C4500433C4188C42F2
:10108000F9D30B4A0B4C002301E013600432A24257
:10109000FBD3FFF7D7FF05F021FCFFF715FA7047E8
:1010A000000002200000002010000020346A000828
:1010B00010000020F04A0020FEE7000080B500AFDD
:1010C0000E4B1B680D4A43F4007313600B4B1B68F7
:1010D0000A4A43F480631360084B1B68074A43F4D1
:1010E00080731360032000F02BF90F2000F008F844
:1010F000FFF7CCFD0023184680BD00BF003C024036
:1011000080B582B000AF7860124B1A68124B1B7822
:1011100019464FF47A73B3FBF1F3B2FBF3F31846BD
:1011200000F043F90346002B01D001230EE07B6859
:101130000F2B0AD8002279684FF0FF3000F00BF92E
:10114000064A7B681360002300E001231846083735
:10115000BD4680BD000000200800002004000020E3
:1011600080B400AF064B1B781A46064B1B6813442D
:10117000044A136000BFBD465DF8047B704700BFA2
:1011800008000020AC4A002080B400AF034B1B686D
:101190001846BD465DF8047B704700BFAC4A00208E
:1011A00080B485B000AF78607B6803F00703FB6014
:1011B0000C4BDB68BB60BA684FF6FF031340BB60A3
:1011C000FB681A02BB68134343F0BF6343F4003368
:1011D000BB60044ABB68D36000BF1437BD465DF8EE
:1011E000047B704700ED00E080B400AF044BDB6887
:1011F0001B0A03F007031846BD465DF8047B7047E1
:1012000000ED00E080B483B000AF0346FB7197F9B6
:101210000730002B0BDBFB7903F01F02074997F91E
:1012200007305B09012000FA02F241F8232000BFD9
:101230000C37BD465DF8047B704700BF00E100E05D
:1012400080B483B000AF03463960FB7197F9073073
:10125000002B0ADB3B68DAB20C4997F90730120120
:10126000D2B20B4483F800230AE03B68DAB20849A3
:10127000FB7903F00F03043B1201D2B20B441A7640
:1012800000BF0C37BD465DF8047B704700E100E00D
:1012900000ED00E080B489B000AFF860B9607A601A
:1012A000FB6803F00703FB61FB69C3F10703042B31
:1012B00028BF0423BB61FB690433062B02D9FB69F9
:1012C000033B00E000237B614FF0FF32BB6902FA71
:1012D00003F3DA43BB681A407B699A404FF0FF3151
:1012E0007B6901FA03F3D9437B680B40134318462B
:1012F0002437BD465DF8047B7047000080B582B09E
:1013000000AF78607B68013BB3F1807F01D301239C
:101310000FE00A4A7B68013B53600F214FF0FF301A
:10132000FFF78EFF054B00229A60044B07221A60DC
:10133000002318460837BD4680BD00BF10E000E01E
:1013400080B582B000AF78607868FFF729FF00BFF2
:101350000837BD4680BD80B586B000AF0346B96092
:101360007A60FB7300237B61FFF73EFF78617A6848
:10137000B9687869FFF78EFF024697F90F3011467A
:101380001846FFF75DFF00BF1837BD4680BD80B52A
:1013900082B000AF0346FB7197F907301846FFF79C
:1013A00031FF00BF0837BD4680BD80B582B000AFB9
:1013B00078607868FFF7A2FF034618460837BD46F5
:1013C00080BD80B584B000AF78607B689B6DFB60AA
:1013D000FFF7DAFEB8607B6893F83530DBB2022B9A
:1013E00008D07B6880225A657B68002283F834200D
:1013F000012352E07B681B681A687B681B6822F037
:1014000016021A607B681B685A697B681B6822F0A9
:1014100080025A617B681B6C002B03D17B689B6C3C
:10142000002B07D07B681B681A687B681B6822F05A
:1014300008021A607B681B681A687B681B6822F0C8
:1014400001021A6013E0FFF79FFE0246BB68D31A41
:10145000052B0CD97B6820225A657B68032283F810
:1014600035207B68002283F83420032315E07B6855
:101470001B681B6803F00103002BE4D17B68DB6D64
:101480003F229A40FB689A607B68012283F83520EE
:101490007B68002283F83420002318461037BD46AD
:1014A00080BD80B483B000AF78607B6893F835303E
:1014B000DBB2022B04D07B6880225A6501230CE04A
:1014C0007B68052283F835207B681B681A687B6877
:1014D0001B6822F001021A60002318460C37BD4633
:1014E0005DF8047B7047000080B489B000AF78607D
:1014F000396000237B6100233B610023BB61002333
:10150000FB616BE10122FB6902FA03F37B613B683B
:101510001B687A6913403B613A697B699A4240F0E3
:101520005A813B685B6803F00303012B05D03B68DD
:101530005B6803F00303022B30D17B689B68BB61BF
:10154000FB695B00032202FA03F3DB43BA69134031
:10155000BB613B68DA68FB695B0002FA03F3BA69B6
:101560001343BB617B68BA699A607B685B68BB6147
:101570000122FB6902FA03F3DB43BA691340BB6142
:101580003B685B681B0903F00102FB6902FA03F385
:10159000BA691343BB617B68BA695A603B685B6890
:1015A00003F00303032B17D07B68DB68BB61FB6987
:1015B0005B00032202FA03F3DB43BA691340BB6109
:1015C0003B689A68FB695B0002FA03F3BA6913434C
:1015D000BB617B68BA69DA603B685B6803F0030350
:1015E000022B23D1FB69DA087B68083253F82230DA
:1015F000BB61FB6903F007039B000F2202FA03F3B0
:10160000DB43BA691340BB613B681A69FB6903F0AD
:1016100007039B0002FA03F3BA691343BB61FB693A
:10162000DA087B680832B96943F822107B681B68C6
:10163000BB61FB695B00032202FA03F3DB43BA6977
:101640001340BB613B685B6803F00302FB695B000E
:1016500002FA03F3BA691343BB617B68BA691A6083
:101660003B685B6803F44033002B00F0B480002338
:10167000FB60604B5B6C5F4A43F4804353645D4B9B
:101680005B6C03F48043FB60FB685B4AFB699B086F
:10169000023352F82330BB61FB6903F003039B0064
:1016A0000F2202FA03F3DB43BA691340BB617B6884
:1016B000524A93422BD07B68514A934225D07B6893
:1016C000504A93421FD07B684F4A934219D07B689F
:1016D0004E4A934213D07B684D4A93420DD07B68AB
:1016E0004C4A934207D07B684B4A934201D107236F
:1016F0000EE008230CE006230AE0052308E004239B
:1017000006E0032304E0022302E0012300E00023BB
:10171000FA6902F0030292009340BA691343BB6175
:101720003549FB699B080233BA6941F823203B4BDA
:101730001B68BB613B69DB43BA691340BB613B6813
:101740005B6803F48033002B03D0BA693B69134311
:10175000BB61324ABB691360304B5B68BB613B695C
:10176000DB43BA691340BB613B685B6803F4003339
:10177000002B03D0BA693B691343BB61274ABB699D
:101780005360264B9B68BB613B69DB43BA691340DE
:10179000BB613B685B6803F48013002B03D0BA691C
:1017A0003B691343BB611D4ABB6993601B4BDB68FC
:1017B000BB613B69DB43BA691340BB613B685B6853
:1017C00003F40013002B03D0BA693B691343BB61D8
:1017D000124ABB69D360FB690133FB61FB690F2BC4
:1017E0007FF690AE00BF00BF2437BD465DF8047B96
:1017F000704700BF0038024000380140000002403E
:101800000004024000080240000C024000100240A8
:101810000014024000180240001C0240003C01403D
:1018200080B483B000AF78600B467B8013467B703A
:101830007B78002B03D07A887B689A6103E07B88F1
:101840001A047B689A6100BF0C37BD465DF8047BC3
:101850007047000080B586B000AF78607B68002BD1
:1018600001D1012364E27B681B6803F00103002BB4
:1018700075D0A34B9B6803F00C03042B0CD0A04B3A
:101880009B6803F00C03082B12D19D4B5B6803F49B
:101890008003B3F5800F0BD1994B1B6803F4003321
:1018A000002B5BD07B685B68002B57D101233FE2A4
:1018B0007B685B68B3F5803F06D1914B1B68904A0B
:1018C00043F4803313601DE07B685B68B3F5A02FA1
:1018D0000CD18B4B1B688A4A43F480231360884BDE
:1018E0001B68874A43F4803313600BE0844B1B680A
:1018F000834A23F480331360814B1B68804A23F4AE
:10190000802313607B685B68002B13D0FFF73CFCDF
:10191000386108E0FFF738FC02463B69D31A642BB4
:1019200001D9032304E2764B1B6803F40033002B38
:10193000F0D014E0FFF728FC386108E0FFF724FC42
:1019400002463B69D31A642B01D90323F0E16C4BA7
:101950001B6803F40033002BF0D100E000BF7B686C
:101960001B6803F00203002B63D0654B9B6803F0F8
:101970000C03002B0BD0624B9B6803F00C03082B6D
:101980001CD15F4B5B6803F48003002B16D15C4BCA
:101990001B6803F00203002B05D07B68DB68012B7A
:1019A00001D00123C4E1564B1B6823F0F8027B6889
:1019B0001B69DB00524913430B603AE07B68DB682C
:1019C000002B20D04F4B01221A60FFF7DDFB38615E
:1019D00008E0FFF7D9FB02463B69D31A022B01D975
:1019E0000323A5E1464B1B6803F00203002BF0D054
:1019F000434B1B6823F0F8027B681B69DB004049FE
:101A000013430B6015E03F4B00221A60FFF7BCFB4D
:101A1000386108E0FFF7B8FB02463B69D31A022B96
:101A200001D9032384E1364B1B6803F00203002B2A
:101A3000F0D17B681B6803F00803002B30D07B6873
:101A40005B69002B16D0304B01221A60FFF79CFB1C
:101A5000386108E0FFF798FB02463B69D31A022B76
:101A600001D9032364E1264B5B6F03F00203002BD3
:101A7000F0D015E0244B00221A60FFF785FB386197
:101A800008E0FFF781FB02463B69D31A022B01D91C
:101A900003234DE11A4B5B6F03F00203002BF0D1DF
:101AA0007B681B6803F00403002B00F0A080002378
:101AB000FB75134B1B6C03F08053002B0FD10023DD
:101AC000BB600F4B1B6C0E4A43F0805313640C4BEE
:101AD0001B6C03F08053BB60BB680123FB750B4B91
:101AE0001B6803F48073002B21D1084B1B68074A45
:101AF00043F480731360FFF747FB386111E000BFC8
:101B00000038024000004742800E4742007000400B
:101B1000FFF73AFB02463B69D31A022B01D9032394
:101B200006E1854B1B6803F48073002BF0D07B68C3
:101B30009B68012B06D1814B1B6F804A43F0010348
:101B400013671CE07B689B68052B0CD17B4B1B6FDC
:101B50007A4A43F004031367784B1B6F774A43F0CC
:101B6000010313670BE0754B1B6F744A23F00103ED
:101B70001367724B1B6F714A23F0040313677B6872
:101B80009B68002B15D0FFF7FFFA38610AE0FFF7DA
:101B9000FBFA02463B69D31A41F28832934201D9DB
:101BA0000323C5E0654B1B6F03F00203002BEED04F
:101BB00014E0FFF7E9FA38610AE0FFF7E5FA0246B8
:101BC0003B69D31A41F28832934201D90323AFE033
:101BD0005A4B1B6F03F00203002BEED1FB7D012B50
:101BE00005D1564B1B6C554A23F0805313647B6818
:101BF0009B69002B00F09B80504B9B6803F00C030B
:101C0000082B5CD07B689B69022B41D14C4B002296
:101C10001A60FFF7B9FA386108E0FFF7B5FA024633
:101C20003B69D31A022B01D9032381E0434B1B6884
:101C300003F00073002BF0D17B68DA697B681B6AC4
:101C40001A437B685B6A9B011A437B689B6A5B084B
:101C5000013B1B041A437B68DB6A1B0637491343AD
:101C60004B60374B01221A60FFF78EFA386108E0AB
:101C7000FFF78AFA02463B69D31A022B01D90323E4
:101C800056E02E4B1B6803F00073002BF0D04EE0A3
:101C90002B4B00221A60FFF777FA386108E0FFF754
:101CA00073FA02463B69D31A022B01D903233FE0A2
:101CB000224B1B6803F00073002BF0D137E07B68E8
:101CC0009B69012B01D1012332E01C4B5B68FB6057
:101CD0007B689B69012B28D0FB6803F480027B683A
:101CE000DB699A4221D1FB6803F03F027B681B6AE3
:101CF0009A421AD1FA6847F6C07313407A68526A5A
:101D00009201934211D1FB6803F440327B689B6AD5
:101D10005B08013B1B049A4207D1FB6803F0706229
:101D20007B68DB6A1B069A4201D0012300E0002396
:101D300018461837BD4680BD00700040003802408C
:101D40006000474280B584B000AF786039607B683E
:101D5000002B01D10123CCE0684B1B6803F0070383
:101D60003A689A420CD9654B3A68D2B21A70634B02
:101D70001B6803F007033A689A4201D00123B8E0D8
:101D80007B681B6803F00203002B20D07B681B6874
:101D900003F00403002B05D0594B9B68584A43F4C9
:101DA000E05393607B681B6803F00803002B05D0A9
:101DB000534B9B68524A43F460439360504B9B687B
:101DC00023F0F0027B689B684D4913438B607B686E
:101DD0001B6803F00103002B44D07B685B68012B78
:101DE00007D1474B1B6803F40033002B19D10123A3
:101DF0007FE07B685B68022B03D07B685B68032B0A
:101E000007D13F4B1B6803F00073002B09D101235E
:101E10006FE03B4B1B6803F00203002B01D1012351
:101E200067E0374B9B6823F003027B685B683449AB
:101E300013438B60FFF7A8F9F8600AE0FFF7A4F9F5
:101E40000246FB68D31A41F28832934201D9032338
:101E50004FE02B4B9B6803F00C027B685B689B0098
:101E60009A42EBD1254B1B6803F007033A689A426C
:101E70000CD2224B3A68D2B21A70204B1B6803F086
:101E800007033A689A4201D0012332E07B681B685D
:101E900003F00403002B08D0194B9B6823F4E05295
:101EA0007B68DB68164913438B607B681B6803F013
:101EB0000803002B09D0124B9B6823F460427B6817
:101EC0001B69DB000E4913438B6000F021F80246CA
:101ED0000B4B9B681B0903F00F030A49CB5C22FAEA
:101EE00003F3094A1360094B1B681846FFF708F90A
:101EF000002318461037BD4680BD00BF003C02409D
:101F0000003802400C6A0008000000200400002095
:101F1000B0B584B000AF002179600021F9600021E4
:101F200039600021B9605249896801F00C01082923
:101F30000DD0082900F29480002902D0042903D092
:101F40008EE04C4BBB608EE04B4BBB608BE0484956
:101F5000496801F03F0179604549496801F4800111
:101F6000002924D042494968890908464FF00001F8
:101F700040F2FF144FF0000500EA040201EA0503F5
:101F80003D4901FB03F0002101FB02F144183A49ED
:101F9000A2FB0101631819467B681A464FF0000343
:101FA000FEF716F902460B461346FB604AE0304B3B
:101FB0005B689B091A464FF0000340F2FF104FF098
:101FC000000102EA000403EA0105204629464FF019
:101FD00000024FF000034B0143EAD0634201104678
:101FE0001946001B61EB05014FF000024FF00003A2
:101FF0008B0143EA90638201121A63EB01034FF0F5
:1020000000004FF00001D90041EA5271D0000246B1
:102010000B46121945EB03034FF000004FF000018F
:10202000990241EA9251900202460B461046194627
:102030007B681A464FF00003FEF7CAF802460B46CB
:102040001346FB600A4B5B681B0C03F00303013370
:102050005B003B60FA683B68B2FBF3F3BB6002E0F5
:10206000044BBB6000BFBB6818461037BD46B0BD0F
:10207000003802400024F40040787D0180B400AFB5
:10208000034B1B681846BD465DF8047B704700BFD4
:102090000000002080B500AFFFF7F0FF0246054BBF
:1020A0009B689B0A03F007030349CB5C22FA03F306
:1020B000184680BD003802401C6A000880B500AF99
:1020C000FFF7DCFF0246054B9B685B0B03F0070341
:1020D0000349CB5C22FA03F3184680BD0038024066
:1020E0001C6A000880B582B000AF78607B68002B66
:1020F00001D1012341E07B6893F83D30DBB2002B36
:1021000006D17B68002283F83C207868FEF7EAFD60
:102110007B68022283F83D207B681A687B68043361
:102120001946104600F00CFC7B68012283F846201B
:102130007B68012283F83E207B68012283F83F20E0
:102140007B68012283F840207B68012283F84120CC
:102150007B68012283F842207B68012283F84320B8
:102160007B68012283F844207B68012283F84520A4
:102170007B68012283F83D20002318460837BD46BE
:1021800080BD80B582B000AF78607B68002B01D144
:10219000012341E07B6893F83D30DBB2002B06D190
:1021A0007B68002283F83C20786800F039F87B686F
:1021B000022283F83D207B681A687B680433194645
:1021C000104600F0BDFB7B68012283F846207B6847
:1021D000012283F83E207B68012283F83F207B6840
:1021E000012283F840207B68012283F841207B682C
:1021F000012283F842207B68012283F843207B6818
:10220000012283F844207B68012283F845207B6803
:10221000012283F83D20002318460837BD4680BDC3
:1022200080B483B000AF786000BF0C37BD465DF866
:10223000047B704780B584B000AF786039603B683C
:10224000002B09D17B6893F83E30DBB2012B14BF21
:1022500001230023DBB222E03B68042B09D17B6819
:1022600093F83F30DBB2012B14BF01230023DBB214
:1022700015E03B68082B09D17B6893F84030DBB24E
:10228000012B14BF01230023DBB208E07B6893F825
:102290004130DBB2012B14BF01230023DBB2002B42
:1022A00001D001237CE03B68002B04D17B68022233
:1022B00083F83E2013E03B68042B04D17B680222A4
:1022C00083F83F200BE03B68082B04D17B68022297
:1022D00083F8402003E07B68022283F841207B687A
:1022E0001B6801223968184600F014FE7B681B68E1
:1022F0002D4A934204D07B681B682C4A934201D13B
:10230000012300E00023002B07D07B681B685A6C78
:102310007B681B6842F400425A647B681B68224A4F
:10232000934222D07B681B68B3F1804F1DD07B683D
:102330001B681F4A934218D07B681B681D4A934252
:1023400013D07B681B681C4A93420ED07B681B68C5
:10235000164A934209D07B681B68184A934204D0FE
:102360007B681B68164A934211D17B681B689B6887
:1023700003F00703FB60FB68062B10D07B681B682B
:102380001A687B681B6842F001021A6007E07B68EC
:102390001B681A687B681B6842F001021A60002300
:1023A00018461037BD4680BD0000014000040140C2
:1023B0000004004000080040000C004000400140C4
:1023C0000018004080B586B000AF786039607B6847
:1023D000002B01D1012397E07B6893F83D30DBB2FD
:1023E000002B06D17B68002283F83C207868FEF73A
:1023F000D7FC7B68022283F83D207B681B689B68C2
:102400007A68126823F4804323F0070393607B68A3
:102410001A687B6804331946104600F091FA7B680D
:102420001B689B687B617B681B689B693B617B6861
:102430001B681B6AFB603B681B687A6913437B61FE
:102440003B6923F4407323F003033B613B689A68C4
:102450003B689B691B0213433A6913433B613B6929
:1024600023F4406323F00C033B613B6923F4704386
:1024700023F0F0033B613B68DA683B68DB691B02D1
:1024800013433A6913433B613B681B691A013B687C
:102490001B6A1B0313433A6913433B61FB6823F038
:1024A0002203FB60FB6823F08803FB603B685A68EB
:1024B0003B685B691B011343FA681343FB607B684D
:1024C0001B687A699A607B681B683A699A617B68C5
:1024D0001B68FA681A627B68012283F846207B68D1
:1024E000012283F83E207B68012283F83F207B682D
:1024F000012283F842207B68012283F843207B6815
:10250000012283F83D20002318461837BD4680BDC0
:1025100080B584B000AF786039607B6893F83E3056
:10252000FB737B6893F83F30BB737B6893F8423052
:102530007B737B6893F843303B733B68002B10D16F
:10254000FB7B012B02D17B7B012B01D0012369E0B6
:102550007B68022283F83E207B68022283F84220B7
:1025600031E03B68042B10D1BB7B012B02D13B7BBC
:10257000012B01D0012355E07B68022283F83F2024
:102580007B68022283F843201DE0FB7B012B08D1EE
:10259000BB7B012B05D17B7B012B02D13B7B012B2C
:1025A00001D001233EE07B68022283F83E207B6855
:1025B000022283F83F207B68022283F842207B6856
:1025C000022283F843203B68002B03D03B68042B96
:1025D00008D00FE07B681B6801220021184600F03C
:1025E00099FC16E07B681B6801220421184600F064
:1025F00091FC0EE07B681B6801220021184600F068
:1026000089FC7B681B6801220421184600F082FCCB
:1026100000BF7B681B681A687B681B6842F0010278
:102620001A60002318461037BD4680BD80B586B0BD
:1026300000AFF860B9607A600023FB75FB6893F81F
:102640003C30012B01D10223AEE0FB68012283F86C
:102650003C207B680C2B00F29F8001A252F823F0F3
:10266000952600089927000899270008992700084F
:10267000D5260008992700089927000899270008FF
:1026800017270008992700089927000899270008AC
:1026900057270008FB681B68B968184600F0F0F976
:1026A000FB681B689A69FB681B6842F008029A6124
:1026B000FB681B689A69FB681B6822F004029A6138
:1026C000FB681B689969BB681A69FB681B680A4349
:1026D0009A6164E0FB681B68B968184600F040FA2C
:1026E000FB681B689A69FB681B6842F400629A6188
:1026F000FB681B689A69FB681B6822F480629A6118
:10270000FB681B689969BB681B691A02FB681B6838
:102710000A439A6143E0FB681B68B968184600F0F9
:1027200095FAFB681B68DA69FB681B6842F00802CF
:10273000DA61FB681B68DA69FB681B6822F0040237
:10274000DA61FB681B68D969BB681A69FB681B689A
:102750000A43DA6123E0FB681B68B968184600F099
:10276000E9FAFB681B68DA69FB681B6842F40062DF
:10277000DA61FB681B68DA69FB681B6822F4806217
:10278000DA61FB681B68D969BB681B691A02FB68C0
:102790001B680A43DA6102E00123FB7500BFFB6896
:1027A000002283F83C20FB7D18461837BD4680BDCB
:1027B00080B584B000AF786039600023FB737B681C
:1027C00093F83C30012B01D10223B4E07B68012255
:1027D00083F83C207B68022283F83D207B681B68DD
:1027E0009B68BB60BB6823F07703BB60BB6823F4C6
:1027F0007F43BB607B681B68BA689A603B681B6854
:10280000B3F5005F3ED0B3F5005F00F28780B3F50B
:10281000805F00F08680B3F5805F7FD8702B1AD080
:10282000702B7BD8602B50D0602B77D8502B3CD0AE
:10283000502B73D8402B58D0402B6FD8302B64D0FE
:10284000302B6BD8202B60D0202B67D8002B5CD08E
:10285000102B5AD062E07B6818683B6899683B6827
:102860005A683B68DB6800F035FB7B681B689B6837
:10287000BB60BB6843F07703BB607B681B68BA68CA
:102880009A604FE07B6818683B6899683B685A68B3
:102890003B68DB6800F01EFB7B681B689A687B68FE
:1028A0001B6842F480429A603CE07B6818683B6891
:1028B00059683B68DB681A4600F092FA7B681B682F
:1028C0005021184600F0EBFA2CE07B6818683B6852
:1028D00059683B68DB681A4600F0B1FA7B681B68F0
:1028E0006021184600F0DBFA1CE07B6818683B6842
:1028F00059683B68DB681A4600F072FA7B681B680F
:102900004021184600F0CBFA0CE07B681A683B685F
:102910001B681946104600F0C2FA03E00123FB735E
:1029200000E000BF7B68012283F83D207B68002225
:1029300083F83C20FB7B18461037BD4680BD000065
:1029400080B485B000AF786039607B681B68FB603D
:102950007B68404A934213D07B68B3F1804F0FD01D
:102960007B683D4A93420BD07B683C4A934207D038
:102970007B683B4A934203D07B683A4A934208D132
:10298000FB6823F07003FB603B685B68FA681343E5
:10299000FB607B682F4A93422BD07B68B3F1804F5A
:1029A00027D07B682C4A934223D07B682B4A9342E2
:1029B0001FD07B682A4A93421BD07B68294A9342E6
:1029C00017D07B68284A934213D07B68274A9342EA
:1029D0000FD07B68264A93420BD07B68254A9342EE
:1029E00007D07B68244A934203D07B68234A9342F2
:1029F00008D1FB6823F44073FB603B68DB68FA682E
:102A00001343FB60FB6823F080023B685B69134360
:102A1000FB607B68FA681A603B689A687B68DA62D8
:102A20003B681A687B689A627B680A4A934203D0C3
:102A30007B680C4A934203D13B681A697B681A632E
:102A40007B6801225A6100BF1437BD465DF8047BE4
:102A5000704700BF00000140000400400008004033
:102A6000000C0040000401400040014000440140CF
:102A70000048014000180040001C004000200040B9
:102A800080B487B000AF786039607B681B6A23F040
:102A900001027B681A627B681B6A7B617B685B68EA
:102AA0003B617B689B69FB60FB6823F07003FB6004
:102AB000FB6823F00303FB603B681B68FA68134361
:102AC000FB607B6923F002037B613B689B687A694A
:102AD00013437B617B68204A934203D07B681F4A83
:102AE00093420CD17B6923F008037B613B68DB6870
:102AF0007A6913437B617B6923F004037B617B6804
:102B0000154A934203D07B68144A934211D13B6922
:102B100023F480733B613B6923F400733B613B68A2
:102B20005B693A6913433B613B689B693A691343AC
:102B30003B617B683A695A607B68FA689A613B68D6
:102B40005A687B685A637B687A691A6200BF1C37CF
:102B5000BD465DF8047B7047000001400004014061
:102B600080B487B000AF786039607B681B6A23F05F
:102B700010027B681A627B681B6A7B617B685B68FA
:102B80003B617B689B69FB60FB6823F4E043FB606F
:102B9000FB6823F44073FB603B681B681B02FA6808
:102BA0001343FB607B6923F020037B613B689B68D8
:102BB0001B017A6913437B617B68224A934203D0ED
:102BC0007B68214A93420DD17B6923F080037B61AE
:102BD0003B68DB681B017A6913437B617B6923F0E7
:102BE00040037B617B68174A934203D07B68164A97
:102BF000934213D13B6923F480633B613B6923F427
:102C000000633B613B685B699B003A6913433B612E
:102C10003B689B699B003A6913433B617B683A6957
:102C20005A607B68FA689A613B685A687B689A6365
:102C30007B687A691A6200BF1C37BD465DF8047B69
:102C4000704700BF000001400004014080B487B01D
:102C500000AF786039607B681B6A23F480727B6800
:102C60001A627B681B6A7B617B685B683B617B687F
:102C7000DB69FB60FB6823F07003FB60FB6823F0FB
:102C80000303FB603B681B68FA681343FB607B69C6
:102C900023F400737B613B689B681B027A691343D2
:102CA0007B617B68214A934203D07B68204A934230
:102CB0000DD17B6923F400637B613B68DB681B02F9
:102CC0007A6913437B617B6923F480637B617B6852
:102CD000164A934203D07B68154A934213D13B694D
:102CE00023F480533B613B6923F400533B613B6811
:102CF0005B691B013A6913433B613B689B691B019C
:102D00003A6913433B617B683A695A607B68FA68A9
:102D1000DA613B685A687B68DA637B687A691A62B1
:102D200000BF1C37BD465DF8047B704700000140C2
:102D30000004014080B487B000AF786039607B68E0
:102D40001B6A23F480527B681A627B681B6A3B61B2
:102D50007B685B687B617B68DB69FB60FB6823F4F5
:102D6000E043FB60FB6823F44073FB603B681B6837
:102D70001B02FA681343FB603B6923F400533B6179
:102D80003B689B681B033A6913433B617B68124AAB
:102D9000934203D07B68114A934209D17B6923F4A3
:102DA00080437B613B685B699B017A6913437B616C
:102DB0007B687A695A607B68FA68DA613B685A68AE
:102DC0007B681A647B683A691A6200BF1C37BD468B
:102DD0005DF8047B704700BF000001400004014023
:102DE00080B487B000AFF860B9607A60FB681B6A96
:102DF0007B61FB681B6A23F00102FB681A62FB68B7
:102E00009B693B613B6923F0F0033B617B681B01DD
:102E10003A6913433B617B6923F00A037B617A695A
:102E2000BB6813437B61FB683A699A61FB687A6906
:102E30001A6200BF1C37BD465DF8047B704780B442
:102E400087B000AFF860B9607A60FB681B6A23F056
:102E50001002FB681A62FB689B697B61FB681B6A56
:102E60003B617B6923F470437B617B681B037A6958
:102E700013437B613B6923F0A0033B61BB681B01EB
:102E80003A6913433B61FB687A699A61FB683A6966
:102E90001A6200BF1C37BD465DF8047B704780B4E2
:102EA00085B000AF786039607B689B68FB60FB6829
:102EB00023F07003FB603A68FB68134343F0070399
:102EC000FB607B68FA689A6000BF1437BD465DF806
:102ED000047B704780B487B000AFF860B9607A6057
:102EE0003B60FB689B687B617B6923F47F437B616C
:102EF0003B681A027B681A43BB6813437A69134321
:102F00007B61FB687A699A6000BF1C37BD465DF83B
:102F1000047B704780B487B000AFF860B9607A6016
:102F2000BB6803F01F03012202FA03F37B61FB6815
:102F30001A6A7B69DB431A40FB681A62FB681A6AEB
:102F4000BB6803F01F03796801FA03F31A43FB68B7
:102F50001A6200BF1C37BD465DF8047B7047000055
:102F600080B485B000AF786039607B6893F83C30FE
:102F7000012B01D102235AE07B68012283F83C2017
:102F80007B68022283F83D207B681B685B68FB60DE
:102F90007B681B689B68BB60FB6823F07003FB6069
:102FA0003B681B68FA681343FB607B681B68FA6820
:102FB0005A607B681B68214A934222D07B681B6859
:102FC000B3F1804F1DD07B681B681D4A934218D017
:102FD0007B681B681B4A934213D07B681B681A4AA4
:102FE00093420ED07B681B68184A934209D07B68D5
:102FF0001B68174A934204D07B681B68154A9342AA
:103000000CD1BB6823F08003BB603B685B68BA6887
:103010001343BB607B681B68BA689A607B680122B7
:1030200083F83D207B68002283F83C20002318466B
:103030001437BD465DF8047B704700BF00000140B7
:103040000004004000080040000C00400004014063
:10305000004001400018004080B485B000AF7860A7
:1030600039600023FB607B6893F83C30012B01D171
:1030700002233DE07B68012283F83C20FB6823F0BB
:10308000FF023B68DB681343FB60FB6823F440727C
:103090003B689B681343FB60FB6823F480623B68DA
:1030A0005B681343FB60FB6823F400623B681B68AA
:1030B0001343FB60FB6823F480523B681B69134396
:1030C000FB60FB6823F400523B685B691343FB60C1
:1030D000FB6823F480423B68DB691343FB607B6839
:1030E0001B68FA685A647B68002283F83C2000233E
:1030F00018461437BD465DF8047B704780B582B032
:1031000000AF78607B68002B01D101233FE07B6832
:1031100093F83D30DBB2002B06D17B68002283F8A8
:103120003C207868FDF710FF7B68242283F83D205F
:103130007B681B68DA687B681B6822F40052DA60DF
:10314000786800F07BFC7B681B681A697B681B68E9
:1031500022F490421A617B681B685A697B681B687D
:1031600022F02A025A617B681B68DA687B681B6858
:1031700042F40052DA607B6800221A647B682022E5
:1031800083F83D207B68202283F83E2000231846E8
:103190000837BD4680BD000080B5BAB000AF78608A
:1031A0007B681B681B68C7F8E4307B681B68DB68BA
:1031B000C7F8E0307B681B685B69C7F8DC30002328
:1031C000C7F8D8300023C7F8D430D7F8E43003F07C
:1031D0000F03C7F8D830D7F8D830002B0FD1D7F865
:1031E000E43003F02003002B09D0D7F8E03003F0DF
:1031F0002003002B03D0786800F065FB56E2D7F877
:10320000D830002B00F0DE80D7F8DC3003F001036B
:10321000002B06D1D7F8E03003F49073002B00F0B8
:10322000D180D7F8E43003F00103002B0BD0D7F89E
:10323000E03003F48073002B05D07B681B6C43F0F7
:1032400001027B681A64D7F8E43003F00403002B12
:103250000BD0D7F8DC3003F00103002B05D07B68DE
:103260001B6C43F002027B681A64D7F8E43003F069
:103270000203002B0BD0D7F8DC3003F00103002B46
:1032800005D07B681B6C43F004027B681A64D7F896
:10329000E43003F00803002B11D0D7F8E03003F03E
:1032A0002003002B05D1D7F8DC3003F00103002BFD
:1032B00005D07B681B6C43F008027B681A647B684E
:1032C0001B6C002B00F0ED81D7F8E43003F02003F5
:1032D000002B08D0D7F8E03003F02003002B02D0F9
:1032E000786800F0F0FA7B681B685B6903F04003C4
:1032F000402B0CBF01230023DBB2C7F8D4307B681E
:103300001B6C03F00803002B03D1D7F8D430002B3B
:103310004FD0786800F0F8F97B681B685B6903F0B0
:103320004003402B41D17B681B681433C7F89C30A5
:10333000D7F89C3053E8003FC7F89830D7F898305A
:1033400023F04003C7F8D0307B681B681433D7F8EC
:10335000D020C7F8A820C7F8A430D7F8A410D7F811
:10336000A82041E80023C7F8A030D7F8A030002BF0
:10337000D9D17B689B6B002B13D07B689B6B7D4AFC
:103380001A657B689B6B1846FEF78BF80346002B8B
:1033900016D07B689B6B1B6D7A68926B10469847C2
:1033A0000EE0786800F09AF90AE0786800F096F983
:1033B00006E0786800F092F97B6800221A6470E1F8
:1033C00000BF6EE17B681B6B012B40F04A81D7F890
:1033D000E43003F01003002B00F04381D7F8E03015
:1033E00003F01003002B00F03C810023BB607B68DE
:1033F0001B681B68BB607B681B685B68BB60BB6845
:103400007B681B685B6903F04003402B40F0B4808D
:103410007B689B6B1B685B68A7F8BE30B7F8BE3053
:10342000002B00F040817B689B8DB7F8BE209A424C
:1034300080F039817B68B7F8BE20DA857B689B6BAA
:10344000DB69B3F5807F00F088807B681B680C33F4
:10345000C7F88830D7F8883053E8003FC7F8843081
:10346000D7F8843023F48073C7F8B8307B681B68C2
:103470000C33D7F8B820C7F89420C7F89030D7F8A5
:103480009010D7F8942041E80023C7F88C30D7F883
:103490008C30002BD9D17B681B6814337B677B6F22
:1034A00053E8003F3B673B6F23F00103C7F8B4309C
:1034B0007B681B681433D7F8B420C7F88020FB67FB
:1034C000F96FD7F8802041E80023BB67BB6F002B62
:1034D000E1D17B681B6814333B663B6E53E8003FC9
:1034E000FB65FB6D23F04003C7F8B0307B681B68B9
:1034F0001433D7F8B020FA66BB66B96EFA6E41E8AD
:1035000000237B667B6E002BE3D17B68202283F84F
:103510003E207B6800221A637B681B680C33FB64C7
:10352000FB6C53E8003FBB64BB6C23F01003C7F88F
:10353000AC307B681B680C33D7F8AC20BA657B6570
:10354000796DBA6D41E800233B653B6D002BE3D1FB
:103550007B689B6B1846FDF734FF7B689A8D7B6810
:10356000DB8D9BB2D31A9BB21946786800F0C0F885
:1035700099E000BFCF3700087B689A8D7B68DB8DB0
:103580009BB2D31AA7F8CE307B68DB8D9BB2002BA1
:1035900000F08B80B7F8CE30002B00F086807B687F
:1035A0001B680C33BB63BB6B53E8003F7B637B6BD7
:1035B00023F49073C7F8C8307B681B680C33D7F8C6
:1035C000C8207A643B64396C7A6C41E80023FB6361
:1035D000FB6B002BE3D17B681B6814337B627B6A37
:1035E00053E8003F3B623B6A23F00103C7F8C43055
:1035F0007B681B681433D7F8C4203A63FB62F96A0E
:103600003A6B41E80023BB62BB6A002BE3D17B68C5
:10361000202283F83E207B6800221A637B681B68A7
:103620000C333B613B6953E8003FFB60FB6823F0D0
:103630001003C7F8C0307B681B680C33D7F8C02074
:10364000FA61BB61B969FA6941E800237B617B6972
:10365000002BE3D1B7F8CE301946786800F048F86F
:1036600023E0D7F8E43003F08003002B09D0D7F82B
:10367000E03003F08003002B03D0786800F0BBF843
:1036800014E0D7F8E43003F04003002B0ED0D7F855
:10369000E03003F04003002B08D0786800F0FBF81E
:1036A00004E000BF02E000BF00E000BFE837BD4615
:1036B00080BD00BF80B483B000AF786000BF0C371E
:1036C000BD465DF8047B704780B483B000AF78607E
:1036D00000BF0C37BD465DF8047B704780B483B0F3
:1036E00000AF786000BF0C37BD465DF8047B7047C3
:1036F00080B483B000AF78600B467B8000BF0C378E
:10370000BD465DF8047B704780B495B000AF78602B
:103710007B681B680C337B637B6B53E8003F3B6328
:103720003B6B23F49073FB647B681B680C33FA6C6F
:103730003A64FB63F96B3A6C41E80023BB63BB6BF3
:10374000002BE5D17B681B6814333B623B6A53E86E
:10375000003FFB61FB6923F00103BB647B681B68CE
:103760001433BA6CFA62BB62B96AFA6A41E80023A0
:103770007B627B6A002BE5D17B681B6B012B19D127
:103780007B681B680C33FB60FB6853E8003FBB6041
:10379000BB6823F010037B647B681B680C337A6C76
:1037A000BA617B617969BA6941E800233B613B6991
:1037B000002BE5D17B68202283F83E207B68002225
:1037C0001A6300BF5437BD465DF8047B704780B56F
:1037D00084B000AF78607B689B6BFB60FB68002265
:1037E000DA85FB680022DA84F868FFF777FF00BF0C
:1037F0001037BD4680BD80B485B000AF78607B686F
:1038000093F83D30DBB2212B3ED17B689B68B3F54A
:10381000805F14D17B681B69002B10D17B681B6A09
:10382000FB60FB681B881A467B681B68C2F30802B2
:103830005A607B681B6A9A1C7B681A6208E07B6886
:103840001B6A591C7A6811621A787B681B685A6077
:103850007B68DB8C9BB2013B9BB27A681946D184B2
:10386000002B0FD17B681B68DA687B681B6822F02D
:103870008002DA607B681B68DA687B681B6842F04C
:103880004002DA60002300E0022318461437BD46E8
:103890005DF8047B704780B582B000AF78607B68CC
:1038A0001B68DA687B681B6822F04002DA607B687C
:1038B000202283F83D207868FFF7FCFE002318469D
:1038C0000837BD4680BD80B58CB000AF78607B689E
:1038D00093F83E30DBB2222B40F0AB807B689B68D4
:1038E000B3F5805F17D17B681B69002B13D10023D0
:1038F000FB627B689B6ABB627B681B685B689BB2F0
:10390000C3F308039AB2BB6A1A807B689B6A9A1C4D
:103910007B689A6226E07B689B6AFB620023BB623D
:103920007B689B68B3F5805F07D07B689B68002B42
:103930000AD17B681B69002B06D17B681B685B681A
:10394000DAB2FB6A1A7008E07B681B685B68DBB25E
:1039500003F07F03DAB2FB6A1A707B689B6A5A1C19
:103960007B689A627B68DB8D9BB2013B9BB27A6875
:103970001946D185002B5AD17B681B68DA687B68B1
:103980001B6822F02002DA607B681B68DA687B68BB
:103990001B6822F48072DA607B681B685A697B6856
:1039A0001B6822F001025A617B68202283F83E20C6
:1039B0007B681B6B012B35D17B6800221A637B6807
:1039C0001B680C337B617B6953E8003F3B613B69BB
:1039D00023F010037B627B681B680C337A6A3A62BF
:1039E000FB61F9693A6A41E80023BB61BB69002BBE
:1039F000E5D17B681B681B6803F01003102B0AD10C
:103A00000023FB607B681B681B68FB607B681B688E
:103A10005B68FB60FB687B689B8D19467868FFF7E5
:103A200067FE02E07868FFF74FFE002302E0002304
:103A300000E0022318463037BD4680BD2DE9F04F27
:103A40009FB000AFF866FB6E1B681B6923F4405003
:103A5000FB6ED968FB6E1A6840EA01031361FB6EC6
:103A60009A68FB6E1B691A43FB6E5B691A43FB6E17
:103A7000DB6913433B67FB6E1B68DB6823F416416D
:103A800021F00C01FB6E1A683B6F0B43D360FB6E99
:103A90001B685B6923F44070FB6E9969FB6E1A68C2
:103AA00040EA01035361FB6E1A68C54B9A4204D089
:103AB000FB6E1A68C34B9A4203D1FEF7FFFA786790
:103AC00002E0FEF7E7FA7867FB6EDB69B3F5004FBB
:103AD00040F0B6807B6F1C464FF0000522462B4617
:103AE000911839645B417B64D7E91023121945EBC7
:103AF00003034FF000004FF00001D90041EA52717A
:103B0000D00002460B46111939666B417B66FB6E8D
:103B10005B681A464FF000039118B9635B41FB6381
:103B2000D7E90E23D7E91801FCF752FB02460B46F2
:103B3000A54BA3FB02235B091E017B6F1C464FF0C4
:103B4000000522462B46911839635B417B63D7E918
:103B50000C23121945EB03034FF000004FF0000156
:103B6000D90041EA5271D00002460B461119B965DD
:103B70006B41FB65FB6E5B681A464FF000039118C2
:103B8000B9625B41FB62D7E90A23D7E91601FCF76A
:103B90001FFB02460B468C4BA3FB02135B096421FF
:103BA00001FB03F3D31ADB003233874AA2FB032362
:103BB0005B095B0003F4F8731E447B6F18464FF0FB
:103BC000000102460B4694183C625B417B62D7E9D8
:103BD0000823121841EB03034FF000044FF00005D7
:103BE000DD0045EA5275D40022462B4614183C6588
:103BF0004B417B65FB6E5B681A464FF000039118E2
:103C0000B9615B41FB61D7E90623D7E91401FCF7F1
:103C1000DFFA02460B466C4BA3FB02135B096421DF
:103C200001FB03F3D31ADB003233674AA2FB032301
:103C30005B0903F00702FB6E1B6832449A60B9E02F
:103C40007B6F1C464FF0000522462B4691183961C8
:103C50005B417B61D7E90423121945EB03034FF065
:103C600000004FF00001D90041EA5271D000024635
:103C70000B4612EB040843EB0509FB6E5B68184624
:103C80004FF000014FF000024FF000038B0043EAB9
:103C90009073820040464946FCF79AFA02460B466A
:103CA000494BA3FB02235B091E017B6F18464FF0B3
:103CB000000102460B469418BC605B41FB60D7E9EB
:103CC0000223121841EB03034FF000044FF00005EC
:103CD000DD0045EA5275D40022462B461418BC6418
:103CE0004B41FB64FB6E5B6818464FF000014FF0E0
:103CF00000024FF000038B0043EA90738200D7E983
:103D00001201FCF765FA02460B462F4BA3FB021388
:103D10005B09642101FB03F3D31A1B0132332A4AE6
:103D2000A2FB03235B0903F0F0031E447B6F1846DC
:103D30004FF0000102460B4694183C605B417B60EB
:103D4000D7E90023121841EB03034FF000044FF0B2
:103D50000005DD0045EA5275D40022462B4612EBE1
:103D6000000A43EB010BFB6E5B6818464FF0000145
:103D70004FF000024FF000038B0043EA9073820083
:103D800050465946FCF724FA02460B460E4BA3FB5D
:103D900002135B09642101FB03F3D31A1B013233C5
:103DA000094AA2FB03235B0903F00F02FB6E1B68A9
:103DB00032449A6000BF7C37BD46BDE8F08F00BF3B
:103DC00000100140001401401F85EB5180B483B006
:103DD00000AF03463960FB7197F90730002B0ADB0F
:103DE0003B68DAB20C4997F907301201D2B20B44A2
:103DF00083F800230AE03B68DAB20849FB7903F054
:103E00000F03043B1201D2B20B441A7600BF0C37E9
:103E1000BD465DF8047B704700E100E000ED00E086
:103E200080B500AF00216FF00400FFF7CFFF00BFA7
:103E300080BD000080B483B000AFEFF305833B602A
:103E40003B68002B03D06FF005037B600CE00A4B4E
:103E50001B68002B05D1084B01221A6000237B60F0
:103E600002E04FF0FF337B607B6818460C37BD469D
:103E70005DF8047B704700BF2C00002080B582B045
:103E800000AFEFF305833B603B68002B03D06FF07E
:103E900005037B6010E00B4B1B68012B09D1FFF77A
:103EA000BFFF084B02221A6001F066F800237B6016
:103EB00002E04FF0FF337B607B6818460837BD4651
:103EC00080BD00BF2C00002080B58EB004AFF8602C
:103ED000B9607A6000233B61EFF305837B617B6906
:103EE000002B7ED1FB68002B7BD080233B62182304
:103EF000FB6100237B624FF0FF33BB617B68002BCB
:103F000045D07B681B68002B02D07B681B687B62F6
:103F10007B689B69002B02D07B689B69FB61FB6916
:103F2000002B08D0FB69382B05D87B685B6803F051
:103F30000103002B01D0002354E07B685B69002B58
:103F400003D07B685B699B083B627B689B68002BA6
:103F50000ED07B68DB685B2B0AD97B681B69002B62
:103F600006D07B685B69002B02D00123BB6110E0A7
:103F70007B689B68002B0CD17B68DB68002B08D129
:103F80007B681B69002B04D10023BB6101E0002387
:103F9000BB61BB69012B10D17B681B697A68926891
:103FA00002920193FB690093BB683A6A796AF868E8
:103FB00000F00CFE03463B6113E0BB69002B10D1FF
:103FC0003B6A9AB207F110030193FB690093BB6847
:103FD000796AF86800F057FE0346012B01D00023F0
:103FE0003B613B6918462837BD4680BD80B584B02B
:103FF00000AF7860EFF30583BB60BB68002B03D094
:104000006FF00503FB6007E00023FB607B68002B7B
:1040100002D0786800F07CFFFB6818461037BD4678
:1040200080BD000080B485B000AFF860B9607A60F0
:10403000FB68074A1A60BB68064A1A607B688022E0
:104040001A6000BF1437BD465DF8047B704700BF9F
:10405000300000208C00002080B485B000AFF860F4
:10406000B9607A60FB68074A1A60BB68064A1A6042
:104070007B684FF480721A6000BF1437BD465DF84C
:10408000047B70478C020020E802002080B483B0DB
:1040900000AF78607B6803F108027B685A607B6838
:1040A0004FF0FF329A607B6803F108027B68DA60A8
:1040B0007B6803F108027B681A617B6800221A6042
:1040C00000BF0C37BD465DF8047B704780B483B0F9
:1040D00000AF78607B6800221A6100BF0C37BD46D4
:1040E0005DF8047B704780B485B000AF78603960BC
:1040F0007B685B68FB603B68FA685A60FB689A689B
:104100003B689A60FB689B683A685A60FB683A684B
:104110009A603B687A681A617B681B685A1C7B68E6
:104120001A6000BF1437BD465DF8047B704780B449
:1041300085B000AF786039603B681B68BB60BB68C6
:10414000B3F1FF3F03D17B681B69FB600CE07B6828
:104150000833FB6002E0FB685B68FB60FB685B6840
:104160001B68BA689A42F6D2FB685A683B685A6084
:104170003B685B683A689A603B68FA689A60FB68DB
:104180003A685A603B687A681A617B681B685A1CF7
:104190007B681A6000BF1437BD465DF8047B70472A
:1041A00080B485B000AF78607B681B69FB607B687A
:1041B0005B687A6892689A607B689B687A685268E4
:1041C0005A60FB685B687A689A4203D17B689A6898
:1041D000FB685A607B6800221A61FB681B685A1EE4
:1041E000FB681A60FB681B6818461437BD465DF80B
:1041F000047B704780B584B000AF786039607B681D
:10420000FB60FB68002B0AD14FF0500383F3118849
:10421000BFF36F8FBFF34F8FBB6000BFFEE702F0AD
:1042200051F8FB681A68FB68DB6BF968096C01FBE5
:1042300003F31A44FB689A60FB6800229A63FB68E8
:104240001A68FB685A60FB681A68FB68DB6B013B05
:10425000F968096C01FB03F31A44FB68DA60FB6838
:10426000FF2283F84420FB68FF2283F845203B6847
:10427000002B14D1FB681B69002B1AD0FB6810338C
:10428000184601F003F90346002B12D00C4B4FF0F7
:1042900080521A60BFF34F8FBFF36F8F09E0FB6846
:1042A00010331846FFF7F2FEFB6824331846FFF779
:1042B000EDFE02F037F8012318461037BD4680BDE9
:1042C00004ED00E080B58EB002AFF860B9607A60AE
:1042D0003B60FB68002B0AD14FF0500383F3118839
:1042E000BFF36F8FBFF34F8FBB6200BFFEE73B682A
:1042F000002B0AD14FF0500383F31188BFF36F8F67
:10430000BFF34F8F7B6200BFFEE77B68002B02D0BC
:10431000BB68002B01D0012300E00023002B0AD151
:104320004FF0500383F31188BFF36F8FBFF34F8FAC
:104330003B6200BFFEE77B68002B02D1BB68002B0D
:1043400001D1012300E00023002B0AD14FF05003DC
:1043500083F31188BFF36F8FBFF34F8FFB6100BFF3
:10436000FEE750237B617B69502B0AD04FF050034E
:1043700083F31188BFF36F8FBFF34F8FBB6100BF13
:10438000FEE77B693B68FB62FB6A002B0DD0FB6A92
:10439000012283F8462097F83820FB6A00931346E1
:1043A0007A68B968F86800F005F8FB6A1846303793
:1043B000BD4680BD80B584B000AFF860B9607A605A
:1043C000FB70BB68002B03D1BB69BA691A6002E0BD
:1043D000BB697A681A60BB69FA68DA63BB69BA6854
:1043E0001A640121B869FFF705FFBB69FA7883F801
:1043F0004C2000BF1037BD4680BD000080B58EB098
:1044000000AFF860B9607A603B6000237B63FB68B3
:104410003B633B6B002B0AD14FF0500383F31188B1
:10442000BFF36F8FBFF34F8FBB6200BFFEE7BB6868
:10443000002B03D13B6B1B6C002B01D1012300E04F
:104440000023002B0AD14FF0500383F31188BFF3F0
:104450006F8FBFF34F8F7B6200BFFEE73B68022B7D
:1044600003D13B6BDB6B012B01D1012300E0002367
:10447000002B0AD14FF0500383F31188BFF36F8FE5
:10448000BFF34F8F3B6200BFFEE701F0BDF903466B
:10449000002B02D17B68002B01D1012300E0002317
:1044A000002B0AD14FF0500383F31188BFF36F8FB5
:1044B000BFF34F8FFB6100BFFEE701F003FF3B6BD3
:1044C0009A6B3B6BDB6B9A4202D33B68022B29D180
:1044D0003A68B968386B00F00BFAF8623B6B5B6ABC
:1044E000002B10D03B6B2433184600F0CFFF03465F
:1044F000002B13D03F4B4FF080521A60BFF34F8F09
:10450000BFF36F8F0AE0FB6A002B07D0394B4FF0E7
:1045100080521A60BFF34F8FBFF36F8F01F002FF1D
:10452000012363E07B68002B03D101F0FBFE002335
:104530005CE07B6B002B06D107F11403184601F0F9
:1045400009F801237B6301F0EDFE00F07BFD01F033
:10455000B9FE3B6B93F844305BB2B3F1FF3F03D13C
:104560003B6B002283F844203B6B93F845305BB2F1
:10457000B3F1FF3F03D13B6B002283F8452001F0EC
:10458000D1FE3A1D07F114031146184600F0F8FF5A
:104590000346002B24D1386B00F0A2FA0346002B0F
:1045A00018D03B6B10337A681146184600F01EFF96
:1045B000386B00F02DFA00F053FD0346002B7FF41A
:1045C0007CAF0C4B4FF080521A60BFF34F8FBFF39C
:1045D0006F8F72E7386B00F01BFA00F041FD6CE75B
:1045E000386B00F015FA00F03BFD00231846383711
:1045F000BD4680BD04ED00E080B590B000AFF8602E
:10460000B9607A603B60FB68BB63BB6B002B0AD16F
:104610004FF0500383F31188BFF36F8FBFF34F8FB9
:10462000BB6200BFFEE7BB68002B03D1BB6B1B6CFA
:10463000002B01D1012300E00023002B0AD14FF011
:10464000500383F31188BFF36F8FBFF34F8F7B62EB
:1046500000BFFEE73B68022B03D1BB6BDB6B012B7A
:1046600001D1012300E00023002B0AD14FF05003B9
:1046700083F31188BFF36F8FBFF34F8F3B6200BF8F
:10468000FEE701F001FFEFF311824FF0500383F3D7
:104690001188BFF36F8FBFF34F8FFA61BB61FB6966
:1046A0007B63BB6B9A6BBB6BDB6B9A4202D33B6841
:1046B000022B2FD1BB6B93F8453087F83330BB6B9F
:1046C0009B6BFB623A68B968B86B00F011F997F917
:1046D0003330B3F1FF3F12D1BB6B5B6A002B16D0B6
:1046E000BB6B2433184600F0D1FE0346002B0ED0DE
:1046F0007B68002B0BD07B6801221A6007E097F8DB
:1047000033300133DBB25AB2BB6B83F8452001234F
:10471000FB6301E00023FB637B6B7B617B6983F3BD
:10472000118800BFFB6B18464037BD4680BD0000B6
:1047300080B58CB000AFF860B9607A600023FB628E
:10474000FB68BB62BB6A002B0AD14FF0500383F3B6
:104750001188BFF36F8FBFF34F8F3B6200BFFEE73F
:10476000BB68002B03D1BB6A1B6C002B01D101235A
:1047700000E00023002B0AD14FF0500383F311888F
:10478000BFF36F8FBFF34F8FFB6100BFFEE701F0F8
:104790003BF80346002B02D17B68002B01D101239B
:1047A00000E00023002B0AD14FF0500383F311885F
:1047B000BFF36F8FBFF34F8FBB6100BFFEE701F008
:1047C00081FDBB6A9B6B7B627B6A002B1FD0B96843
:1047D000B86A00F0F7F87B6A5A1EBB6A9A63BB6A34
:1047E0001B69002B0FD0BB6A1033184600F04EFE39
:1047F0000346002B07D03D4B4FF080521A60BFF3A9
:104800004F8FBFF36F8F01F08DFD012369E07B684F
:10481000002B03D101F086FD002362E0FB6A002B30
:1048200006D107F11003184600F094FE0123FB6245
:1048300001F078FD00F006FC01F044FDBB6A93F83E
:1048400044305BB2B3F1FF3F03D1BB6A002283F86F
:104850004420BB6A93F845305BB2B3F1FF3F03D10C
:10486000BB6A002283F8452001F05CFD3A1D07F188
:1048700010031146184600F083FE0346002B23D197
:10488000B86A00F017F90346002B17D0BB6A24332F
:104890007A681146184600F0A9FDB86A00F0B8F829
:1048A00000F0DEFB0346002B89D1104B4FF0805205
:1048B0001A60BFF34F8FBFF36F8F80E7B86A00F0C5
:1048C000A7F800F0CDFB7AE7B86A00F0A1F800F095
:1048D000C7FBB86A00F0EEF80346002B3FF46FAF59
:1048E000002318463037BD4680BD00BF04ED00E010
:1048F00080B586B000AFF860B9607A6000237B6154
:10490000FB689B6B3B61FB681B6C002B0DD1FB684C
:104910001B68002B4DD1FB689B68184600F092FF86
:104920007861FB6800229A6043E07B68002B19D114
:10493000FB685868FB681B6C1A46B96801F0F2FF07
:10494000FB685A68FB681B6C1A44FB685A60FB687A
:104950005A68FB689B689A422BD3FB681A68FB680D
:104960005A6026E0FB68D868FB681B6C1A46B96879
:1049700001F0D8FFFB68DA68FB681B6C5B421A44E5
:10498000FB68DA60FB68DA68FB681B689A4207D24A
:10499000FB689A68FB681B6C5B421A44FB68DA6030
:1049A0007B68022B05D13B69002B02D03B69013BA0
:1049B0003B613B695A1CFB689A637B691846183750
:1049C000BD4680BD80B582B000AF786039607B683D
:1049D0001B6C002B18D07B68DA687B681B6C1A4450
:1049E0007B68DA607B68DA687B689B689A4203D3ED
:1049F0007B681A687B68DA607B68D9687B681B6CA7
:104A00001A46386801F08EFF00BF0837BD4680BDEA
:104A100080B584B000AF786001F054FC7B6893F8F7
:104A20004530FB7311E07B685B6A002B12D07B681A
:104A30002433184600F02AFD0346002B01D000F075
:104A400001FEFB7B013BDBB2FB7397F90F30002BC0
:104A5000E9DC00E000BF7B68FF2283F8452001F01D
:104A600061FC01F02FFC7B6893F84430BB7311E0CC
:104A70007B681B69002B12D07B681033184600F04E
:104A800005FD0346002B01D000F0DCFDBB7B013BA4
:104A9000DBB2BB7397F90E30002BE9DC00E000BFFE
:104AA0007B68FF2283F8442001F03CFC00BF1037F4
:104AB000BD4680BD80B584B000AF786001F002FCD7
:104AC0007B689B6B002B02D10123FB6001E000237C
:104AD000FB6001F027FCFB6818461037BD4680BD1F
:104AE00080B584B000AF786001F0ECFB7B689A6B16
:104AF0007B68DB6B9A4202D10123FB6001E000235B
:104B0000FB6001F00FFCFB6818461037BD4680BD06
:104B100080B485B000AF786039600023FB6014E09A
:104B20000F4AFB6852F83330002B0BD10C49FB685D
:104B30003A6841F833200A4AFB68DB0013447A687C
:104B40005A6006E0FB680133FB60FB68072BE7D97E
:104B500000BF00BF1437BD465DF8047B704700BF3F
:104B6000B04A002080B586B000AFF860B9607A60C6
:104B7000FB687B6101F0A6FB7B6993F844305BB274
:104B8000B3F1FF3F03D17B69002283F844207B69A6
:104B900093F845305BB2B3F1FF3F03D17B6900224C
:104BA00083F8452001F0BEFB7B699B6B002B06D18F
:104BB0007B6924337A68B968184600F03BFC786951
:104BC000FFF726FF00BF1837BD4680BD80B58EB009
:104BD00004AFF860B9607A603B607B6B002B0AD150
:104BE0004FF0500383F31188BFF36F8FBFF34F8FE4
:104BF0003B6200BFFEE7BB6B002B0AD14FF05003B6
:104C000083F31188BFF36F8FBFF34F8FFB6100BF3A
:104C1000FEE75C233B613B695C2B0AD04FF05003FD
:104C200083F31188BFF36F8FBFF34F8FBB6100BF5A
:104C3000FEE73B69BB6B002B1ED07B6B002B1BD0B0
:104C4000BB6B7B627B6A7A6B1A637B6A022283F896
:104C50005920002303937B6A029307F11403019305
:104C60003B6B00933B687A68B968F86800F050F8CD
:104C7000786A00F0DDF801E000237B617B6918466B
:104C80002837BD4680BD80B58CB004AFF860B960F0
:104C90003B601346FB80FB889B00184601F034FC08
:104CA00078617B69002B0ED05C2001F02DFCF8614F
:104CB000FB69002B03D0FB697A691A6305E0786908
:104CC00001F0EEFC01E00023FB61FB69002B17D033
:104CD000FB69002283F85920FA8800230393FB69BB
:104CE0000293FB6A0193BB6A00933B68B968F8685A
:104CF00000F00EF8F86900F09BF80123BB6102E0B8
:104D00004FF0FF33BB61BB6918462037BD4680BDFD
:104D100080B588B000AFF860B9607A603B603B6BEB
:104D2000186B7B689B001A46A52101F009FE3B6BBE
:104D30001A6B7B6803F18043013B9B001344BB610A
:104D4000BB6923F00703BB61BB6903F00703002BBA
:104D50000AD04FF0500383F31188BFF36F8FBFF376
:104D60004F8F7B6100BFFEE7BB68002B1FD0002385
:104D7000FB6112E0BA68FB69134419783A6BFB696E
:104D8000134434330A461A70BA68FB6913441B781B
:104D9000002B06D0FB690133FB61FB690F2BE9D9BE
:104DA00000E000BF3B6B002283F8432003E03B6B35
:104DB000002283F83420BB6A372B01D93723BB622A
:104DC0003B6BBA6ADA623B6BBA6ADA643B6B00220D
:104DD0001A653B6B04331846FFF778F93B6B1833C1
:104DE0001846FFF773F93B6B3A6B1A61BB6AC3F164
:104DF00038023B6B9A613B6B3A6B5A623B6B002209
:104E00005A653B6B002283F858203A68F968B86904
:104E100001F028F902463B6B1A60FB6A002B02D0B6
:104E2000FB6A3A6B1A6000BF2037BD4680BD0000A8
:104E300080B582B000AF786001F044FA2D4B1B685A
:104E400001332C4A13602C4B1B68002B09D12A4AD2
:104E50007B681360274B1B68012B10D100F016FCF8
:104E60000DE0264B1B68002B09D1234B1B68DA6A27
:104E70007B68DB6A9A4202D81F4A7B681360204B2A
:104E80001B6801331E4A13601D4B1A687B685A6405
:104E90007B68DA6A1B4B1B689A4203D97B68DB6A22
:104EA000184A13607B68DA6A13469B0013449B0020
:104EB000154A1A447B68043319461046FFF713F964
:104EC00001F030FA0D4B1B68002B0ED00A4B1B680B
:104ED000DA6A7B68DB6A9A4207D20C4B4FF0805249
:104EE0001A60BFF34F8FBFF36F8F00BF0837BD4607
:104EF00080BD00BFBC0B0020E8060020C80B0020CE
:104F0000D80B0020C40B0020EC06002004ED00E0CC
:104F100080B584B000AF78600023FB607B68002B15
:104F200017D0134B1B68002B0AD04FF0500383F3AC
:104F30001188BFF36F8FBFF34F8FBB6000BFFEE7D9
:104F400000F080F80021786800F0EAFC00F088F8B2
:104F5000F860FB68002B07D1064B4FF080521A60B7
:104F6000BFF34F8FBFF36F8F00BF1037BD4680BDBB
:104F7000E40B002004ED00E080B58AB004AF00230C
:104F8000BB6000237B603A46391D07F108031846D1
:104F9000FFF748F839687B68BA68029201930023EA
:104FA000009300230A4621492148FFF70FFE0346DC
:104FB000204A13601F4B1B68002B02D001237B612A
:104FC00001E000237B617B69012B02D100F0FCFC36
:104FD00078617B69012B16D14FF0500383F3118860
:104FE000BFF36F8FBFF34F8F3B6100BF124B4FF08A
:104FF000FF321A60114B01221A60114B00221A6015
:1050000001F0BEF80EE07B69B3F1FF3F0AD14FF02B
:10501000500383F31188BFF36F8FBFF34F8FFB6093
:1050200000BFFEE700BF1837BD4680BD8869000895
:105030005D560008E00B0020DC0B0020C80B0020B0
:10504000C00B002080B400AF044B1B680133034A3F
:10505000136000BFBD465DF8047B7047E40B002081
:1050600080B584B000AF0023FB600023BB60424BDF
:105070001B68002B0AD14FF0500383F31188BFF354
:105080006F8FBFF34F8F3B6000BFFEE701F01AF94F
:10509000394B1B68013B384A1360374B1B68002BA8
:1050A00062D1364B1B68002B5ED02FE0344BDB689F
:1050B000DB68FB60FB6818331846FFF771F8FB6884
:1050C00004331846FFF76CF8FB68DA6A2D4B1B684F
:1050D0009A4203D9FB68DB6A2A4A1360FB68DA6AE2
:1050E00013469B0013449B00274A1A44FB68043371
:1050F00019461046FEF7F7FFFB68DA6A234B1B6878
:10510000DB6A9A4202D3224B01221A601C4B1B68B5
:10511000002BCBD1FB68002B01D000F055FB1D4BC1
:105120001B687B607B68002B10D000F047F80346BB
:10513000002B02D0164B01221A607B68013B7B607A
:105140007B68002BF1D1134B00221A60104B1B68B7
:10515000002B09D00123BB600F4B4FF080521A6027
:10516000BFF34F8FBFF36F8F01F0DCF8BB681846B9
:105170001037BD4680BD00BFE40B0020BC0B0020F3
:105180007C0B0020C40B0020EC060020E806002069
:10519000D00B0020CC0B002004ED00E080B483B0E5
:1051A00000AF054B1B687B607B6818460C37BD461B
:1051B0005DF8047B704700BFC00B002080B586B04F
:1051C00000AF00237B614F4B1B68002B40F08F80AA
:1051D0004D4B1B6801333B614B4A3B6913603B6994
:1051E000002B20D1494B1B681B68002B0AD04FF0C5
:1051F000500383F31188BFF36F8FBFF34F8F3B6072
:1052000000BFFEE7414B1B68FB60414B1B683F4AF8
:1052100013603F4AFB6813603E4B1B6801333D4AF5
:10522000136000F0D1FA3C4B1B683A699A4249D3AB
:10523000364B1B681B68002B04D1374B4FF0FF32F5
:105240001A603FE0314B1B68DB68DB68BB60BB6802
:105250005B687B603A697B689A4203D22E4A7B681E
:1052600013602FE0BB6804331846FEF799FFBB6854
:105270009B6A002B04D0BB6818331846FEF790FFDA
:10528000BB68DA6A254B1B689A4203D9BB68DB6AA4
:10529000224A1360BB68DA6A13469B0013449B00E2
:1052A0001F4A1A44BB68043319461046FEF71BFF19
:1052B000BB68DA6A1B4B1B68DB6A9A42B8D30123CE
:1052C0007B61B5E7174B1B68DA6A154913469B00EB
:1052D00013449B000B441B68012B01D901237B6104
:1052E000114B1B68002B07D001237B6104E00F4B9F
:1052F0001B6801330D4A13607B6918461837BD4699
:1053000080BD00BFE40B0020C00B0020740B002008
:10531000780B0020D40B0020DC0B0020C40B0020F5
:10532000EC060020E8060020D00B0020CC0B00206B
:1053300080B485B000AF284B1B68002B03D0274BEF
:1053400001221A6041E0254B00221A60244B1B68A1
:10535000FB6010E0FB68002B0AD14FF0500383F391
:105360001188BFF36F8FBFF34F8F7B6000BFFEE7E5
:10537000FB68013BFB601B49FA6813469B00134422
:105380009B000B441B68002BE4D0FA6813469B007B
:1053900013449B00134A1344BB60BB685B685A68A4
:1053A000BB685A60BB685A68BB6808339A4204D12C
:1053B000BB685B685A68BB685A60BB685B68DB683F
:1053C000094A1360064AFB68136000BF1437BD46E4
:1053D0005DF8047B704700BFE40B0020D00B002079
:1053E000C40B0020EC060020E806002080B584B045
:1053F00000AF786039607B68002B0AD14FF0500312
:1054000083F31188BFF36F8FBFF34F8FFB6000BF33
:10541000FEE7074B1B68183319467868FEF787FECE
:105420000121386800F07CFA00BF1037BD4680BD0E
:10543000E806002080B586B000AFF860B9607A60F9
:10544000FB68002B0AD14FF0500383F31188BFF3A0
:105450006F8FBFF34F8F7B6100BFFEE70A4B1B6866
:1054600018331946F868FEF73EFE7B68002B02D021
:105470004FF0FF33BB607968B86800F051FA00BFA5
:105480001837BD4680BD00BFE806002080B586B055
:1054900000AF78607B68DB68DB683B613B69002BB1
:1054A0000AD14FF0500383F31188BFF36F8FBFF31E
:1054B0004F8FFB6000BFFEE73B6918331846FEF7CD
:1054C0006FFE1E4B1B68002B1DD13B690433184631
:1054D000FEF766FE3B69DA6A194B1B689A4203D9EC
:1054E0003B69DB6A164A13603B69DA6A13469B0024
:1054F00013449B00134A1A443B690433194610466F
:10550000FEF7F1FD05E03B69183319460E48FEF73A
:10551000EAFD3B69DA6A0D4B1B68DB6A9A4205D9E2
:1055200001237B610A4B01221A6001E000237B61A9
:105530007B6918461837BD4680BD00BFE40B0020CC
:10554000C40B0020EC0600207C0B0020E8060020A5
:10555000D00B002080B483B000AF7860064B1A688F
:105560007B681A60054B1A687B685A6000BF0C376D
:10557000BD465DF8047B7047D40B0020C00B0020B3
:1055800080B588B000AF786039607B68002B0AD1A5
:105590004FF0500383F31188BFF36F8FBFF34F8F2A
:1055A0003B6100BFFEE73B68002B0AD14FF0500380
:1055B00083F31188BFF36F8FBFF34F8FFB6000BF82
:1055C000FEE700F07FFE1D4B1B68BB617B685B68DC
:1055D000BA69D31A7B613B681B68B3F1FF3F02D104
:1055E0000023FB6123E07B681A68154B1B689A4215
:1055F00007D07B685B68BA699A4202D30123FB61DA
:1056000015E03B681B687A699A420BD23B681A68BE
:105610007B69D21A3B681A607868FFF79BFF00230A
:10562000FB6104E03B6800221A600123FB6100F08B
:1056300079FEFB6918462037BD4680BDC00B0020AF
:10564000D40B002080B400AF034B01221A6000BFCE
:10565000BD465DF8047B7047D00B002080B582B05A
:1056600000AF786000F052F8064B1B68012BF9D9A7
:10567000054B4FF080521A60BFF34F8FBFF36F8F0F
:10568000F0E700BFEC06002004ED00E080B582B03A
:1056900000AF00237B600CE07A6813469B00134444
:1056A0009B00124A13441846FEF7F0FC7B68013356
:1056B0007B607B68372BEFD90D48FEF7E7FC0D4880
:1056C000FEF7E4FC0C48FEF7E1FC0C48FEF7DEFCBC
:1056D0000B48FEF7DBFC0B4B054A1A600A4B054AE8
:1056E0001A6000BF0837BD4680BD00BFEC06002031
:1056F0004C0B0020600B00207C0B0020900B002046
:10570000A80B0020740B0020780B002080B582B01D
:1057100000AF19E000F0D6FD104BDB68DB687B6062
:105720007B6804331846FEF73BFD0D4B1B68013BBD
:105730000B4A13600B4B1B68013B0A4A136000F0D5
:10574000F1FD786800F010F8064B1B68002BE1D1E2
:1057500000BF00BF0837BD4680BD00BF900B0020D2
:10576000BC0B0020A40B002080B584B000AF786093
:105770007B6893F85930002B08D17B681B6B184667
:1057800000F08EFF786800F08BFF18E07B6893F8DC
:105790005930012B03D1786800F082FF0FE07B685D
:1057A00093F85930022B0AD04FF0500383F311883D
:1057B000BFF36F8FBFF34F8FFB6000BFFEE700BFEB
:1057C0001037BD4680BD000080B483B000AF0C4BE5
:1057D0001B681B68002B04D10A4B4FF0FF321A6084
:1057E00008E0074B1B68DB68DB687B607B685B68F5
:1057F000044A136000BF0C37BD465DF8047B704758
:10580000740B0020DC0B002080B483B000AF0B4B86
:105810001B68002B02D101237B6008E0084B1B684A
:10582000002B02D102237B6001E000237B607B68B8
:1058300018460C37BD465DF8047B7047C80B002046
:10584000E40B002080B586B000AF78607B683B61D8
:1058500000237B617B68002B56D02E4B1B683A6976
:105860009A420AD04FF0500383F31188BFF36F8F31
:10587000BFF34F8FFB6000BFFEE73B691B6D002B42
:105880000AD14FF0500383F31188BFF36F8FBFF33A
:105890004F8FBB6000BFFEE73B691B6D5A1E3B6923
:1058A0001A653B69DA6A3B69DB6C9A422CD03B692A
:1058B0001B6D002B28D13B6904331846FEF770FCA2
:1058C0003B69DA6C3B69DA623B69DB6AC3F1380237
:1058D0003B699A613B69DA6A0F4B1B689A4203D9AC
:1058E0003B69DB6A0C4A13603B69DA6A13469B002A
:1058F00013449B00094A1A443B6904331946104675
:10590000FEF7F1FB01237B617B6918461837BD4622
:1059100080BD00BFE8060020C40B0020EC0600207C
:1059200080B584B000AF78603960214B1B68FB60A4
:10593000204B1B6804331846FEF732FC7B68B3F13A
:10594000FF3F0AD13B68002B07D01A4B1B6804337A
:1059500019461948FEF7C7FB26E0FA687B6813442E
:10596000BB60144B1B68BA685A60BA68FB689A42FD
:1059700009D2124B1A680F4B1B68043319461046A4
:10598000FEF7D5FB10E00E4B1A680A4B1B68043378
:1059900019461046FEF7CBFB0A4B1B68BA689A42C1
:1059A00002D2084ABB68136000BF1037BD4680BDF5
:1059B000C00B0020E8060020A80B0020780B002078
:1059C000740B0020DC0B002080B58AB004AF0023EC
:1059D0007B6100F007FB1C4B1B68002B21D00023D0
:1059E000FB600023BB603A1D07F1080107F10C03BF
:1059F0001846FEF731FB7968BB68FA68029201939A
:105A00000223009300230A4610491148FFF7DEF8ED
:105A10000346104A13600F4B1B68002B01D0012373
:105A20007B617B69002B0AD14FF0500383F311880F
:105A3000BFF36F8FBFF34F8F3B6100BFFEE77B6902
:105A400018461837BD4680BD180C00209069000824
:105A50008D5B00081C0C002080B58AB000AFF86098
:105A6000B9607A603B6000237B62FB68002B0AD13F
:105A70004FF0500383F31188BFF36F8FBFF34F8F45
:105A80003B6200BFFEE71A4B1B68002B2AD0BB68A5
:105A90003B617B687B61FB68BB61BB68052B18DCE5
:105AA000FFF7B2FE0346022B09D1114B186807F12C
:105AB000100100233A6BFEF7A1FC786212E00C4B58
:105AC000186807F1100100230022FEF797FC7862A6
:105AD00008E0074B186807F1100100233A68FEF749
